:020000040800F2
:10000000C01E0020CD02000827490008DB4500087B
:1000100025490008D12F00082152000800000000E7
:100020000000000000000000000000003502000891
:10003000D32F00080000000079020008914E00084C
:10004000E7020008E7020008E7020008E7020008EC
:10005000E7020008E7020008E7020008E7020008DC
:10006000E7020008E7020008E7020008E7020008CC
:10007000E7020008E7020008E7020008E7020008BC
:10008000E7020008E7020008E7020008E7020008AC
:10009000E7020008E7020008E7020008E70200089C
:1000A000E7020008114F0008E7020008E702000815
:1000B000E7020008E7020008E7020008E70200087C
:1000C000E7020008E7020008E7020008E70200086C
:1000D000E7020008E702000815520008E7020008DE
:1000E000E7020008E7020008E702000800F002F853
:1000F00000F090F80AA090E8000C82448344AAF132
:100100000107DA4501D100F085F8AFF2090EBAE82F
:100110000F0013F0010F18BFFB1A43F0010318473B
:100120002889000048890000103A24BF78C878C1A7
:10013000FAD8520724BF30C830C144BF04680C60ED
:10014000704700000023002400250026103A28BF35
:1001500078C1FBD8520728BF30C148BF0B60704739
:100160006E2900F0C285702901F03181662907F0FF
:100170005584652907F05284672907F04F84612967
:1001800007F04E8403681B0A28BF41F080016929EB
:1001900000F01681642900F01381752900F01081A8
:1001A0006F2901F0BE80782901F0FD80E92901F076
:1001B0005980E42901F05680F52901F05380EF2998
:1001C00001F0BB80F82901F0FC800368DB0928BF3F
:1001D00041F08001632900F0DA87732900F0DF879E
:1001E000E32901F0DD85F32901F0E2850020704765
:1001F0001FB501F0B7FB04000020002107F01EF836
:10020000401C60600020002107F002F8E0601FBD84
:1002100010B510BD02F020F81146FFF7E9FF05F018
:10022000C1F902F07DFA03B4FFF7F2FF03BC02F05C
:1002300093FA0000224B19680868B0E8F00F80F3C9
:100240000988BFF36F8F4FF0000080F311884EF0E4
:100250000D0E70470000000006480068006880F33B
:10026000088862B661B6BFF34F8FBFF36F8F00DFB0
:1002700000BF00BF08ED00E0EFF30980BFF36F8F10
:100280000F4B1A6820E9F00F106008B54FF05000CE
:1002900080F31188BFF34F8FBFF36F8F06F04AFAD8
:1002A0004FF0000080F31188BDE808401968086825
:1002B000B0E8F00F80F30988BFF36F8F704700BF7D
:1002C00040000020EFF30580704700000948804798
:1002D00009480047FEE7FEE7FEE7FEE7FEE7FEE728
:1002E000FEE7FEE7FEE7FEE704480549054A064B40
:1002F000704700000D4F0008ED000008C0180020F6
:10030000C01E0020C01A0020C01A00207CB51D4667
:1003100016460C00009001D02044401E074B7B4441
:100320002A4669460190304600F007FF05461CB199
:100330000020694600F014FF28467CBD490E0000ED
:100340000FB41CB5084B06AA7B446946009005987B
:1003500000F0F3FE04460020694600F001FF20464D
:100360001CBC5DF814FB0000150E000070B50C46B7
:100370000546012A05D02878800600D5EA690023C1
:1003800002E0012305E05B1C934202D2E05C0028FE
:10039000F9D1A869E618C01AA861286A1844286229
:1003A000284600F010FC04E0D5E9012114F8010B07
:1003B0009047B442F8D3284600F01BFC70BD000003
:1003C0002DE9F0410646002410687529314616A52E
:1003D00010D000F01FFC002802DA404213A507E00D
:1003E00031688A0701D512A502E0490704D511A595
:1003F000012401E000F017FC00210A2206F1240785
:1004000009E0B0FBF2FCB0FBF2F302FB1C00303061
:1004100078541846491C0028F3D123462A46304612
:10042000BDE8F04100F008BC000000002D00000015
:100430002B000000200000002DE9F05F89460446F3
:100440004FF0000ADFF874B1FB44C0F820A020464A
:10045000E1688847002874D0252806D0D4E9012116
:100460009047206A401C2062F1E700265F46204644
:10047000E16888472028054607DB312D05D2781929
:1004800010F8200C08B10643F1E7B00701D526F0BB
:100490000406C4F81CA00027C4F818A02A2D09D00F
:1004A000284604F062FF38B304EB8708303DC8F8F3
:1004B000185019E059F8041B204604EB870291619B
:1004C000E1688847012F054618D1E069002820DA45
:1004D00026F020061DE0D8F8180000EB800005EBA0
:1004E00040003038C8F818002046E16888470546C3
:1004F00004F03BFF0028EED1012F0AD02E2D08D1A9
:100500002046E16888477F1C0546022F46F02006FA
:10051000C4DBA069002803DA404246F00106A0616E
:10052000F00701D026F010066C2D0BD0682D09D0F5
:100530004C2D39D06A2D35D0742D35D07A2D33D04D
:1005400016E038E0E1682F4620468847B842054665
:1005500009D16C2F26D04FF48060E1680643204615
:100560008847054604E06C2F1AD04FF4807006438C
:100570000DB3A5F14100192802D8203546F40066D4
:100580004A462946204626604E46FFF7E9FD80B1DF
:1005900001280BD0F61D26F0070000F1080956E7E8
:1005A0004020E4E78020D8E70020D6E706F10409E0
:1005B0004DE7284652E7206ABDE8F09FD28400004C
:1005C0000FB400B58DB010A9099000910B904FF0B9
:1005D000FF300A9000200C900648784406900648A8
:1005E00078446A4607900F9909A801F08BF90DB07D
:1005F0005DF814FB471300005F1300002DE9FF5F57
:100600001D464FF0FF3B91464FF000085F46D5E98D
:100610000146A96901987F1C8847296A8246884754
:100620000028F6D1BAF1FF3F0CD0002E24F4C064AC
:1006300019DD600614D5BAF12B0F09D0BAF12D0FD0
:100640000ED103E0584604B0BDE8F09F44F4806446
:10065000A96901987F1C8847761E8246002E02DD1C
:10066000BAF1300F03D0B9F1000F26D032E0A969FA
:10067000761E01987F1C44F400748847002E824641
:1006800005DDBAF1780F06D0BAF1580F03D0B9F1F1
:10069000000F10D01EE0B9F1000F02D0B9F1100F19
:1006A00018D1A969761E01987F1C24F4007488472C
:1006B0008246102002E0082000E00A20814609E07E
:1006C000A96908FB0908761E01987F1C44F4007490
:1006D00088478246002E05DD4946504600F082FEDE
:1006E0000028EDDAE96901988847A00502D46FF087
:1006F0000100A8E7E00725D1600613D5600502D503
:10070000C8F1000000E0404629680A1D2A60096817
:10071000220501D5087015E0220701D5088011E0F7
:1007200008600FE02868011D29600068210502D5D6
:1007300080F8008006E0210702D5A0F8008001E0E3
:10074000C0F8008038467EE72DE9FF5F4FF00008D3
:100750009946144646469169D2E901A7DDF838B0BA
:1007600001988847054659EA0B0005D009E0A169C0
:100770000198761C88470546216A28468847002844
:10078000F5D1681C03D05FEACA7005D015E04FF0C0
:10079000FF3004B0BDE8F09F2068011D2160D0F853
:1007A00000800AE05FEACA7001D108F8015BA16924
:1007B000761C01987F1E88470546002F1ADD681CAD
:1007C00018D0B9F1000F0DD0E81705EBD060421139
:1007D00020F01F0059F822102A1A012090400142EF
:1007E000E0D107E0BBF1000FDCD12846216A884741
:1007F0000028D7D0E16901988847BBF1000F07D1E5
:10080000002E05DD5FEACA7002D1002188F80010D1
:10081000A068B84203DDBBF1000F03D017B16FF041
:100820000100B6E73046B4E7401ECAB210F8011F17
:100830008A4202D00029F9D10020704740EA010322
:10084000024630B59B0710D14FF0013400E008C2DA
:1008500008C91D1B9D4315EAC41FF8D013F0FF0102
:1008600002F8011B0DD01B0AF8E711F8013B002B21
:1008700002F8013B05D011F8013B002B02F8013BC7
:10088000F3D130BD10B5431C02E010F8011B71B16B
:100890008107FAD14FF0013202C88C1A8C4314EA56
:1008A000C211F9D0C01A0A0603D0C01E10BDC01A6A
:1008B00010BD0A0401D0801E10BD0902FCD0401EEC
:1008C00010BD40EA010370B59B072ED14FF00136F1
:1008D000042A2AD308C810C99D1B9D43121F15EA7C
:1008E000C61517D0D8B2E1B2401A50EA056110D14E
:1008F00098B2A1B2401A50EA05410AD123F07F40D4
:1009000024F07F41401A50EA052102D1180EA0EBD5
:10091000146070BDA342DBD018BA21BA884201D955
:10092000012070BD4FF0FF3070BD0AB9002070BDCE
:1009300010F8013B11F8014B63B1A3420AD1521EDA
:1009400008D010F8013B11F8014B1BB1A34201D1B3
:10095000521EEDD1181B70BD032A40F2308010F0FA
:10096000030C00F0158011F8013BBCF1020F62444A
:1009700098BF11F801CB00F8013B38BF11F8013BDB
:10098000A2F1040298BF00F801CB38BF00F8013B88
:1009900011F0030300F02580083AC0F0088051F8F8
:1009A000043B083A51F804CBA0E80810F5E7121D03
:1009B0005CBF51F8043B40F8043BAFF30080D20722
:1009C00024BF11F8013B11F801CB48BF11F8012BEE
:1009D00024BF00F8013B00F801CB48BF00F8012B11
:1009E000704710B5203AC0F00B80B1E81850203A9B
:1009F000A0E81850B1E81850A0E81850BFF4F5AFBF
:100A00005FEA027C24BFB1E81850A0E8185044BF48
:100A100018C918C0BDE810405FEA827C24BF51F8B5
:100A2000043B40F8043B08BF7047D20728BF31F8A9
:100A3000023B48BF11F8012B28BF20F8023B48BFFA
:100A400000F8012B704702F0FF0343EA032242EA59
:100A5000024200F002B84FF000020429C0F01280F8
:100A600010F0030C00F01B80CCF1040CBCF1020F61
:100A700018BF00F8012BA8BF20F8022BA1EB0C0136
:100A800000F00DB85FEAC17C24BF00F8012B00F82C
:100A9000012B48BF00F8012B70474FF0000200B552
:100AA000134694469646203922BFA0E80C50A0E891
:100AB0000C50B1F12001BFF4F7AF090728BFA0E83F
:100AC0000C5048BF0CC05DF804EB890028BF40F80B
:100AD000042B08BF704748BF20F8022B11F0804F4D
:100AE00018BF00F8012B704710B5044610F0030F33
:100AF00008BF11F0030F40F015804FF0013E121FA8
:100B0000C0F20E8051F8043BA3EB0E0C2CEA030C50
:100B10001CEACE1C08BF40F8043BF0D0A1F1040150
:100B200002F10402521E08DB11F8013B002B00F811
:100B3000013BF7D11146FFF78EFF204610BD0000A4
:100B40004FF0013C50F8042B51F8043B9A4221D15C
:100B5000A2EB0C03934313EACC1317D150F8042BE8
:100B600051F8043B9A4215D1A2EB0C03934313EACC
:100B7000CC130BD150F8042B51F8043B9A4209D105
:100B8000A2EB0C03934313EACC13DBD04FF000002D
:100B9000704700BFD01A01BAB1FA81F101F0180113
:100BA00022FA01F0CB40C1F12001DBB2C0B2C01A81
:100BB0002CFA01F3D11A914311EAC311E6D170471F
:100BC00070477047704770B5044685690068C10674
:100BD00001D5302600E02026C00707D070BDD4E93B
:100BE000012130469047206A401C20626D1EF6D5D8
:100BF00070BD70B5044685690078C00707D170BD27
:100C0000D4E9012120209047206A401C20626D1EFB
:100C1000F6D570BD09684A0501D540B27047C905CF
:100C2000FCD500B2704709684A0501D5C0B27047CB
:100C3000C905FCD580B270472DE9F0470D469946AD
:100C40009246044600F124080168880604D5E0694C
:100C500021F01001216000E00120A84201DD471BC6
:100C600000E00027A1697A1902EB0900081AA061C7
:100C70002078C00602D42046FFF7A5FF002608E032
:100C8000D4E901211AF806009047206A401C761C1E
:100C900020624E45F4DB2078C0060AD52046FFF7D7
:100CA00092FF06E0D4E9012130209047206A401CE1
:100CB0002062381EA7F10107F4DC07E0D4E9012126
:100CC00018F805009047206A401C2062281EA5F1F4
:100CD0000105F3DC2046FFF78CFF2078000602D5E3
:100CE0000220BDE8F0870120FBE711680268006A76
:100CF000530501D508700AE0D30501D5088006E048
:100D0000130603D5C217C1E9000200E00860012004
:100D1000704770472DE9FF4F0C461E464FF0FF37D6
:100D20008BB0D2E90001DDF860800A908A46C1F3F9
:100D30000A5505B93D46002108464FF00000BAF1BA
:100D4000000F00F4400005DA00EB80004FF4400192
:100D500001EA50004FEA9059B9F1010F00DDB946A0
:100D60000A9850EA4A000ED044F61050A5F2FF351A
:100D700045432F14B8F1000F1ED07542291E1EDD09
:100D8000C9F100021CE0B8F1010F4FF0000001D0E2
:100D9000302103E0F24305E02154401CB042FBDB6C
:100DA00030460022002121540B99C1F80880C1E986
:100DB00000200FB0BDE8F08FBD1B6D1CDEE74A467A
:100DC00000DA694206A801F0B1F906AB93E8070022
:100DD00003AB83E8070050460A9901F0C4FC8DE894
:100DE0000700A0F500501F3800900398002D0ADD81
:100DF00042F21F014A460844002303A903906846B3
:100E000001F070FF09E0A0F500504A461F380023AA
:100E100003A90390684601F08FFF8DE807000004E6
:100E2000000C03D04FF0FF30410800E01046B8F14D
:100E3000000F03D00022009215461EE0751E05D457
:100E400000F098FD303262556D1EF9D5B34601228F
:100E5000084302D000227F1C04E02078302801D112
:100E600000227F1E002A099784D01DE0112D07DA89
:100E700000F080FD303262556D1C50EA0102F5D160
:100E8000084302D00098C8B10EE00021681E05E0BA
:100E9000235C625C63542254401E491C8142F7DB90
:100EA000AB46A81B401E0990002004F80B000B98CD
:100EB000099AC0F80880C0E9002B7AE711264FF0A4
:100EC000000857E72DE9F04F88460446D21D22F06E
:100ED000070191B0D1E90001CDE90A0104F0A1F9BF
:100EE00002460B98C00F01D02D2007E02068810733
:100EF00001D52B2002E0202101EAC000032A09903D
:100F000001D0072A05DB03464146204600F0FEFEDD
:100F10000BE12078800601D5E06900E00620B8F1F9
:100F2000650F814606D0B8F1660F18D0B8F1670F8B
:100F300070D131E00020B9F1110F009001DB1123D5
:100F400001E009F101030AAA01A90CA8FFF7E2FEDA
:100F5000DDE90C70002609F10105834647E0012018
:100F60004B4600904FF000470AAA01A90CA8FFF7D2
:100F7000D1FEDDE90DB00C995D46002610B909F1EE
:100F800001000D18B9EB050003D4C0F1FF3609F1DB
:100F90000105A5EB09002BE0B9F1010F01DA4FF0D3
:100FA00001090020B9F1110F0090484601DD11231D
:100FB00000E003460AAA01A90CA8FFF7ABFEDDE991
:100FC0000C704D4600268346207800070AD4AB45B6
:100FD00000DA5D4601A8012D04DD411911F8011C5C
:100FE000302907D04F4502DA17F1040F04DA012047
:100FF00082460FE06D1EEEE7002F02DCED1B3E4443
:1010000003E0781CA84200DD7D1CB81B00F1010A3A
:101010004FF000472078000703D4AA4501DB4FF0CA
:10102000FF3A0021B7F1004F0DF143088DF843104E
:1010300024D002202B23002F01DA7F422D230A2106
:10104000021EA0F1010000DC5FB197FBF1FC97FBF1
:10105000F1F201FB1C7C17460CF1300C08F801CDB5
:10106000EEE7A8F1010003702188090501D54521AB
:1010700000E06521A0F1010800F8011C09980FA902
:10108000A1EB0807FF1D00B10120411901EBEA7037
:10109000A1693844081A401EA0612078C00602D415
:1010A0002046FFF790FD099828B1D4E90121904727
:1010B000206A401C20622078C00622D52046FFF717
:1010C00082FD1EE0002E04DBB34502DD01A8805D39
:1010D00000E03020D4E901219047206A401C2062C2
:1010E000761CAAF101005FEA000A0AD100F03AFC7E
:1010F000C0680168405CD4E901219047206A401C27
:101100002062281EA5F10105DCDC07E0D4E90121FD
:1011100018F8010B9047206A401C2062381EA7F186
:101120000107F3DC2046FFF764FD032011B041E620
:1011300001694A1C02610878704700B58FB0CDE99B
:1011400001310021059105497944CDE9031011468B
:101150006846FFF771F90FB000BD0000E5FFFFFF23
:101160000A6802F8010B0A607047D1E900239A422D
:1011700002D2531C0B601070704710B5436913B155
:10118000AFF3008001E0FFF7F1F8012010BD127805
:1011900000F124010A7000224A700122EDE7116873
:1011A0004FF0FF32E9E700002DE9FF5F15468A4660
:1011B0000446DFF8AC80F8440027D8E900103E462A
:1011C000CDE9001010E03AF816106A4602A801F0C6
:1011D0001FF8411C07D02178890603D5E269391828
:1011E00091420DD80744761C2078800602D5E0692C
:1011F000B84205DDAE42E6DB3AF816000028E2D13F
:10120000A069C01BA0612046FFF7DDFCD8E90010F3
:10121000CDE90010002017E03AF818106A4602A83D
:1012200000F0F6FFB0F1FF3F81460BD000250DF135
:10123000080B05E0D4E901211BF8050090476D1C5F
:101240004D45F7D308F10100B0428046E4DB206A47
:10125000384420622046FFF7CCFCBDE8FF9F000029
:10126000767700002DE9F0418046D21D22F007027A
:101270000025D2E90002F52915A614D0011E72F14D
:10128000000106DA0023D0EB030063EB020211A693
:1012900008E0D8F800108B0701D50FA602E0490737
:1012A00001D50EA601251146002408F1240704E00B
:1012B00000F060FB30323A55641C50EA0102F7D16D
:1012C0002B46324621464046BDE8F041FFF7B4BC0C
:1012D000000000002D0000002B0000002000000096
:1012E00030B4002100F1240408E002F00705D20820
:1012F000303542EA4372DB086554491C52EA030563
:10130000F3D10468002310A2250707D5A40600D452
:1013100021B1C46901230DA2641EC46130BCFFF772
:101320008BBC10B5044621461068FFF77CFC0246D2
:101330002046BDE810400023D2E7D21D22F007016D
:10134000D1E90023CCE700000000000030000000DD
:10135000F0B40D460188090502D5214C7C4402E019
:101360001F4C7C440E34002100F1240608E002F0FA
:101370000F071209E75D42EA03721B097754491C03
:1013800052EA0307F3D102780023120704D5702D27
:1013900006D009B1022311342246F0BCFFF74CBC41
:1013A00001231034F8E770B504460D462146106855
:1013B000FFF739FC024629462046BDE8704000236D
:1013C000C6E7D21D22F00703D3E90023C0E7036874
:1013D000126843F0200303600823C3610023B7E7CA
:1013E000D87500003A2800D2303820F02002412A77
:1013F00001D3A2F13700884201D34FF0FF3070478C
:101400002DE9FF4F06468BB00878FF2806D0491C0F
:101410002D2805D000244FF0000908E000200CE042
:101420000124F8E709EB8903491C00EB430908781C
:10143000FF28F7D114B1C9F10000814610780025CA
:101440002C46AA4629462D2801D02B2804D1521C0F
:101450002D2813D0002082468B461078FF280FD00D
:101460004FF0000C0A21521CA5FB017804FB0181FE
:1014700005FB0C11C5194BEB0104EEE70120EAE76F
:10148000002108464FF00000BAF1000F02D000EB37
:1014900080004008C0F38157012F01DD4FF0FF3776
:1014A0000E9955EA040009EB01080BD04FF0020930
:1014B00018F5FA7F16DA4FEACA70002F706008DD5F
:1014C000012007E04FEACA70C6E900B00FB0BDE8DE
:1014D000F08F0020306000F049FAC0F80090182129
:1014E000084616E0B8F5FA7F18DD002F02DAF74853
:1014F000784401E0F6487844D0E90010C6E90010CD
:1015000040EACA70706000F031FAC0F8009014210F
:1015100008460FB0BDE8F04F06F07DBA002108463E
:101520004FF00000B8F10001099002DAC7F10002A3
:1015300000E03A4601DAC8F1000106A800F0F6FD25
:1015400006AB93E8070003AB83E8070044F23E00D4
:101550005BEA04010090584604D144F21E012C4677
:101560005D460091210C0904014306D10099240431
:1015700044EA15442D041039009104F07F410143E1
:1015800006D10099240244EA15642D02083900911D
:1015900004F07041014306D10099240144EA157416
:1015A0002D01091F009104F04041014306D100992B
:1015B000A40044EA9574AD00891E009104F0004136
:1015C000084304D100986D196441401E00904FF00B
:1015D00001033A466846B8F1000FCDE9014503A979
:1015E00002DD01F0BEFB01E001F091FBBAF1000F5A
:1015F00004460D4601D084F00044002108464FF017
:101600000000099940F2FF77484010F00C0F07D115
:1016100024F00040284303D0C4F30A50B84212D14A
:1016200000F0A4F9C0F80090C4F30A50B8420AD1FF
:10163000A8487844D0E90010C6E9001004F0004141
:101640000843706042E7C6E900543FE72DE9FF4FC9
:101650001F464FF0000A4FF0FF38454691B0D7E9DA
:101660000146CDF83CA000F07DF9C0680168405CFF
:101670001090B96912986D1C8847396A814688476D
:101680000028F6D1B9F1FF3F0AD0002E24F4D0642F
:1016900011DDB9F12B0F08D0B9F12D0F0BD102E0FC
:1016A000404615B013E744F48064B96912986D1C84
:1016B0008847761E8146600504A901D52D2000E0EB
:1016C0002B20002E01F1010B0DF130088DF81000D8
:1016D0003FDDB9F1690F08D0B9F1490F05D0B9F173
:1016E0006E0F02D0B9F14E0F1CD13B4601A80095F8
:1016F00080E85002DDE912126FF0020006F0F6F900
:10170000C11CCED10EE0B96912986D1C8847814684
:101710001398761E44F4007405600F98401C002E48
:101720000F9016DDB9F1300FEDD0B9F1780F02D07E
:10173000B9F1580F0DD10F9801280AD13B46CDE9D8
:101740000054DDE91212001F029606F0CDF9C11C0B
:10175000A7D1109989453ED144F0800406E0139941
:10176000681CAAF1010A44F400740860B9696D1C90
:101770001298761E884730288146F0D02BE01099C9
:10178000894505D1200603D4761E44F0800418E074
:10179000484603F0EAFD08B3761E0DF123018B45A0
:1017A00044F4007408D2A9F130000BF8010B2006B4
:1017B00007D5AAF1010003E0200602D40AF10100D6
:1017C0008246A00502D51399681C0860B969129871
:1017D0006D1C88478146002ED1DC53E0002E51DD80
:1017E000B9F1650F02D0B9F1450F4BD1A00549D52C
:1017F000B9696D1C1298761E24F440748847002E37
:1018000081460CDD2B2804D0B9F12D0F07D144F40B
:101810008074B96912986D1C8847761E8146E00570
:1018200001D52D2100E02B2108F8011BCDF8008007
:1018300021E0761E0DF13901884544F400740CD284
:10184000A9F1300010F0FF0088F8000002D10099E3
:10185000884509D908F1010806E0E00501D51E48D0
:1018600001E042F20F708246B96912986D1C8847F8
:10187000814613980560002E04DD484603F075FD8F
:101880000028D6D1F96912988847FF2053468BF873
:10189000000088F8000000200A900B9004AA0CA910
:1018A0000AA8FFF7ADFDA00502D46FF00100F8E62D
:1018B00014F0240F12D0E0071CD13868DDE90A12B9
:1018C000031D3B600068C0E9001213E07C75000056
:1018D0006E75000032740000F1D8FFFF0AA9684657
:1018E00003F0D2FCE00705D13868009A011D396089
:1018F000006802602846D4E602681144137801604B
:1019000018467047D16005497944516104497944CA
:10191000116200211161114600F04EBAEDFFFFFF88
:10192000ED000000426842B1016811F8013B23B1AB
:10193000521EC0E90012184670470121C160881E7E
:10194000704742685AB1C368016843B983688B42E3
:1019500005D0491E521CC0E90012002070474FF00C
:10196000FF307047004870478018002000487047DB
:101970006018002030B5B0F10A024FEA900E71F104
:1019800000034EEA817EB0EB0E0061EB91014FEA5D
:10199000101E4EEA017E10EB0E0041EB11114FEAD2
:1019A000102E4EEA016E10EB0E0041EB11214FEAB2
:1019B000104E4EEA014E10EB0E0041EB1141401863
:1019C00041F100014FEAD00040EA41704FEAD101F5
:1019D00010EB80054FEA810444EA907444EB010463
:1019E0006D1944EB0404521BA3414FF0000348BFA0
:1019F0000A3200D530BD401C41F1000130BD10B5A8
:101A0000044600F04FFC0068005D00F0010010BDCE
:101A10002DE9F04F04460D46D21D22F0070089B093
:101A2000D0E900974846394603F0FBFB0246F80F21
:101A300001D02D2307E02068810701D52B2302E088
:101A4000202101EAC0038DF820300BB1012000E015
:101A50000020032A824601D0072A04DB29462046BB
:101A600000F054F93FE12078800601D40D2500E014
:101A7000E569C7F30A560D2D49DA00214FEA175BD5
:101A800008464FF00000002F00F4400007DA00EB9A
:101A900080004FF4400100EBD07001EA6000811536
:101AA000012901DD4FF0FF3100224FEA850CBCF126
:101AB000180F06D31346ACF118004FF08052C24005
:101AC00003E04FF4801323FA0CF30CF10C0CBCF17F
:101AD000200F04D3ACF1200C09FA0CF001E007FA56
:101AE0000CF000294FF0004801DD18B90FE00ED1CD
:101AF00040450CD319EB02095F4121B9404502D1A1
:101B00009F4329EA0209BBEB175F00D0761C2088AF
:101B1000000502D57B48784402E07A4878441938B9
:101B200008AA302302F80A30037C0AF10101002ED2
:101B30000AF1020A53546A4602DC4FF0300101E018
:101B40004FF031014FF001088DF8001002D0A6F2DD
:101B5000FF3603E059EA470100D06B4E002D02DC4E
:101B60002178090704D54FF002082E218DF80110C5
:101B7000C44600210BE0C7F303433F01C35C491C8B
:101B80006D1E02F80830052908F1010801DA002D60
:101B9000F1DC00210CE000EB1973491C1B786D1E71
:101BA000082902F808304FEA091908F1010801DA9A
:101BB000002DF0DC21688B0602D516E0A8F10108A3
:101BC000E04505DD02EB080313F8013C302BF5D0AE
:101BD000B8F1000F09DD02EB080313F8013C2E2BCE
:101BE00003D1090701D4A8F10108002D05DD3E212C
:101BF00002F808106D1E08F10108407C002E02F862
:101C0000080008F1010804DA2D20764202F80800E5
:101C100002E02B2002F808000A214FF47A70864275
:101C200008F101080BDB96FBF0F3303302F80830C3
:101C300096FBF0F308F1010800FB136601E0642E47
:101C40000CDB642096FBF0F3303302F8083096FB8F
:101C5000F0F308F1010800FB136601E00A2E06DB31
:101C600096FBF1F0303002F8080008F1010896FB0D
:101C7000F1F001FB1060303002F80800A16908F1B2
:101C8000010808EB050202EB0A00081AA06120789F
:101C9000C00602D42046FEF796FF216A08AE01EB8B
:101CA0000A00206204E0D4E9012116F8010B9047F4
:101CB000BAF1010AF7D22078C00602D52046FEF715
:101CC00082FF6E4609E016F8010B3E280FD0D4E9DA
:101CD00001219047206A401C2062B8F10108F2D22D
:101CE0002046FEF786FF09B00320BDE8F08F206A8A
:101CF0002844206203E0D4E90121302090476D1E82
:101D0000EBD3F8E7596E000002FCFFFF2DE9F0412C
:101D10001F46044603260168072A01F4006004DB1D
:101D200008B116A505E016A503E008B115A500E069
:101D300015A521F010002060A069C01EA0610FB1A0
:101D4000401EA0612046FEF73EFF4FB1D4E90121BD
:101D500038469047206A401C2062C01C206206E082
:101D6000206AFAE7D4E9012115F8010B9047761EA5
:101D7000F8D22046FEF73DFFBDE8F0814E414E000F
:101D80006E616E00494E4600696E660010B543698B
:101D900013B1AFF3008001E0FFF706FA012010BD98
:101DA000128800F1240182840022C2840122EDE71E
:101DB00011684FF0FF32E9E72DE9F34F4FF0000AC9
:101DC0000C4656468DB001200C9001F10C000B9092
:101DD00062690B9801219047051E2DD0252D2CD02E
:101DE000216A8847C0B162690B9801219047216A36
:101DF00088470028F7D16269411E0B98904700E0A0
:101E0000761CA1690D988847216A88470028F7D178
:101E1000E1690D988847DBE7A1690D988847A842DA
:101E2000074601D1761CD3E7E1690D9888477F1CEE
:101E300002D1BAF1000F6FD06BE162690B980027F5
:101E40003D46394690472A2804D162690B98012102
:101E500090470125DFF8D08262690B9801219047F5
:101E6000A0F130010A290AD24745E5DC07EB8701DA
:101E700000EB4107303FDFD445F01005ECE7E90601
:101E800001D46FF000476C280AD04C2814D0682881
:101E900015D06A280DD074281CD07A281AD01DE0DD
:101EA00062690B98012190476C2802D045F0040527
:101EB00014E045F002050DE045F020050AE06269F6
:101EC0000B9801219047682802D045F0080505E0ED
:101ED00045F4006562690B9801219047C4E90157F8
:101EE00065283DD019DC58287AD00CDC452837D03D
:101EF00004DC252826D041289ED131E046282FD069
:101F0000472899D12CE05B2877D0612828D0632816
:101F10007CD0642823D15AE0F6E06F2848D008DC52
:101F200066281DD067281BD0692821D06E2816D1BD
:101F300027E0702845D0732868D0752847D07828C6
:101F40000DD14DE0A1690D988847252805463FF43D
:101F500069AFE1690D9888476D1C3FF46AAFD8E01E
:101F60000D9923466A466FF0010005F0BBFDC5E000
:101F700045F0400023464FF000026060A80736D4C9
:101F80003EE0E8077FF447AF2068011D216000684C
:101F9000290501D506701BE7290701D5068017E73B
:101FA000A90703D5F117C0E9006111E706600FE743
:101FB00045F0400023464FF008026060A80716D4A1
:101FC0001EE040F60E0125EA0100606016E045F0D3
:101FD000400023464FF00A026060A80707D40FE0D4
:101FE00045F040006060A80708D5234610220D99EF
:101FF0006FF00100AFF3008080E007E0102223467D
:102000000D996FF00100FEF7F9FA77E04FF0000943
:1020100063284F46C8464B46CB4602D05B2806D0C5
:1020200038E0E80601D40120A060012732E06269AF
:10203000D4F80CB00B98012190475E2807D14FF0DF
:10204000010949466269D4F80CB00B9890472169A0
:1020500039B900210A4603AB43F82120491C08295D
:10206000FADBD8B3216949B308F1010862690B981A
:10207000012190475D28F4D1B9F1000F09D000206B
:1020800003A951F82020D24341F82020401C082801
:10209000F7DB03AB2069002820794FEA40701ED09F
:1020A0005B462246CDF80080CDE901970D990028C6
:1020B0006FF0010020DAAFF300801FE0C11703AA20
:1020C00000EBD1614B1121F01F0102EB8302411A99
:1020D00013680120884003431360C7E719E00D9996
:1020E000224600286FF00100009702DAAFF300806B
:1020F00004E0FEF729FB01E0AFF3008000280ADAD4
:10210000401C06D10C9820B14FF0FF300FB0BDE855
:10211000F08F5046FAE7E90701D10AF1010A0644B7
:1021200000200C9054E60000CCCCCC0C2DE9F047FC
:10213000814616468AB0354878440DC88DE80D00B2
:1021400032487844801C03AC0DC884E80D0041F689
:102150009B300844372190FBF1F290FBF1F5A5F19B
:10216000800501FB12041B3C02D56442012000E003
:102170000020DFF898A080460027FA44AAF1BE0AA2
:102180000EE0E0070AD03246684607EB470101231C
:102190000AEB810100F0D0FD8DE8070064107F1C80
:1021A000002CEED1194F7F44AE3F19E0E80715D05F
:1021B00007EB04100DF1180A90E80E008AE80E00F3
:1021C000C068F04201D1981908903246012306A94F
:1021D00003A800F0B1FD03AB83E807006D10641C99
:1021E000002DE3D14FF0010332466946B8F1000FEC
:1021F00003A802D000F076FD01E000F09DFDC9E9E2
:102200000001C9F808200AB0BDE8F087C8680000DE
:1022100070B516460C46054600F044F8036893F87E
:102220000101012806D0FF2C0FD8185D68B10120EC
:102230002C7070BDD3F807013246214603F2071314
:1022400003442846BDE8704018474FF0FF3070BD8A
:1022500000487047601800207546FFF7F9FFAE464A
:1022600005006946534620F00700854618B020B5A2
:10227000FEF73AF8BDE820404FF000064FF00007A7
:102280004FF000084FF0000B21F00701AC46ACE81E
:10229000C009ACE8C009ACE8C009ACE8C0098D468B
:1022A0007047000010B5FFF75DFB001D10BD00BFBB
:1022B0008D4F000010B5FFF759FB006810BD10B539
:1022C0000446FFF753FB046010BD00002DE9FF4FEB
:1022D0001F464FF03C0987B04FF00042DDE9141073
:1022E00001F10108DDF858A002EA405003900020F7
:1022F00005908346054604460490B969461E089831
:102300008847AAF1010A0290BAF1000F3BDD02985A
:102310002E2815D01021FFF765F800282EDB4FF08E
:10232000010B0599014317D0B9F1000F0BDB4A46A9
:10233000C11700F0FEF905430C43A9F1040905E0BB
:10234000012004900BE008B145F001050120059043
:10235000049820B9361D02E0049800B1361FB9690F
:10236000089808F101088847BBF1000FAAF1010A9B
:102370000290C9D00999C1F80080C5E70298702879
:1023800008D0502806D0F96908988847BBF1000F9B
:1023900014D04FE0002002900120BBF1000F049008
:1023A00009D0B969089808F101088847AAF101091C
:1023B000B9F1000F07DCF969089888476FF0010050
:1023C0000BB0BDE8F08F2B2804D02D280CD14FF096
:1023D000FF300490B969089808F101088847A9F10D
:1023E0000109B9F1000FE6DD411CE4D00A21FEF736
:1023F000F9FF0028DFDB029908F1010801EB8101F8
:1024000000EB41000290B969089888470A21FEF75D
:10241000E9FF099AA9F10109B9F1000FC2F800809A
:1024200001DD0028E7DAF9690898884704990298DD
:1024300000FB016655EA040004D004F040410900A5
:1024400002D006E0039898E0A40044EA9574AD0039
:10245000B61E04F00041080002D16D196441761ED9
:10246000159810F0240F03D04FF00B095C4803E0DF
:102470004FF028096FF07D008246564507DAAAEB37
:1024800006018944B9F1410F01DD4FF041090120F6
:102490000021A9F1010200F04CF9024628400B4648
:1024A0002140084301D0012100E00021501E02918B
:1024B00043F1FF3128402140084301D0012000E0D2
:1024C00000200299834651EA0B014FD000210846B3
:1024D0004FF00000039900F4400039B100EB800098
:1024E0004FF4400100EBD07001EA60008015012834
:1024F00002DD4FF0FF3000E013D0401C36D00298D0
:1025000060B3BBF1000F0CD14A460120002100F05E
:1025100010F928402140084301D0012000E00020AC
:10252000E0B101204A46002100F003F903464019BA
:102530000A4661412D1A8C4111D3B9F1400F09DDD2
:10254000159810F0240F02D0AAF1340603E0AAF186
:10255000170600E0761C00254FF0004406E05B1EE5
:1025600042F1FF3220EA030521EA0204CAF1010028
:10257000B04206DA1B4903980843019000200090FE
:102580000EE0039AC4F3D321E80A0A43164940EA4D
:1025900044500A433146CDE90002684602F0DAFEB3
:1025A000159810F0240F0BD01598C00715D1386876
:1025B000DDE90012031D3B600068C0E900120CE079
:1025C00002A8694602F060FE1598C00705D1386878
:1025D000029A011D3960006802604046F0E6000082
:1025E00002FCFFFF0000F07F0000F03F2DE9FF4FED
:1025F00092461D4685B04FF00041DDE9124BDDE902
:1026000014727F1E01EA4B50414940F0FF4940EAF5
:102610000108002122F020004928049102D04E2810
:1026200028D04CE03BA0012607C88DE80700A96927
:102630000698641C88477F1E014606D41DF80600D4
:1026400018B121F0200181420BD0E9690698884732
:10265000032E34D0082E32D06FF0010009B0BDE84F
:10266000F08F761C032E01D0082EE0D1601CCAF832
:102670000000DCE7A9690698641C88477F1E2AD4FD
:1026800020F02000412826D1A9690698641C8847BB
:102690007F1E20D420F020004E281CD1A969069866
:1026A000641C88477F1E48F4002849F48009CAF852
:1026B000004001D4282806D0E969069888475FEAD7
:1026C000CB7012D022E0A9690698641C88477F1E4F
:1026D00001D4002803DAE96906988847BCE729286D
:1026E000F1D1641CCAF80040E9E71BF0240F07D0C1
:1026F00028680499031D2B600068C0E9001805E0F4
:102700002868021D2A600068C0F800902046A5E7EE
:102710000000F07F494E46494E49545900000000E0
:1027200010B50446AFF300802046BDE81040FDF729
:102730007ABDB2F120030AD5C2F1200301FA02F1F9
:1027400020FA03F300FA02F041EA0301704700FAAD
:1027500003F14FF00000704701491820ABBEFEE7BF
:102760002600020070475FEA400C08BF91F0000F9E
:102770004FEA8C234FEAC12243EA51514FEA1C50E1
:1027800018BF00F5F0404FEA300018BF41F000419B
:102790005FEA6C5C00F02980BCF1FF3F08BF40F0AD
:1027A00080407047130C06BF12044FF0100C4FF01E
:1027B000000C130E04BF12020CF1080C130F04BF1F
:1027C00012010CF1040C930F04BF92000CF1020CE7
:1027D000D30F04BF52000CF1010C11464FF0000260
:1027E000A0F11F00A0EB0C00704711F0004F08BFD4
:1027F000704731F000413FF4D5AF0B0C06BF090420
:102800004FF0100C4FF0000C0B0E04BF09020CF13E
:10281000080C0B0F04BF09010CF1040C8B0F04BF53
:1028200089000CF1020CCB0F04BF49000CF1010C24
:10283000CCF12003A0EB0C0022FA03F302FA0CF215
:1028400041EA030100F10100704720F07F4C80EA6B
:10285000030023F07F47ACEB070303F57C5300F044
:10286000004003F1FF032DE980494FEA154B09B4FD
:102870004FEA144325EA0B4E24EA03480FF20426DC
:1028800006EB132749083E785FEA320203FB06672E
:10289000C7F5000707FB06F64FEA54374FEAD6465E
:1028A00006F1020607FB066CCCF1005C4FEA1C4700
:1028B0002CEA074C07FB06F40CFB06F504EB154667
:1028C0004FEA961634BF00204FF000404FEAD13750
:1028D00006FB07FC4FEA1C4C0CFB0BF7D21B03FB5F
:1028E0000CF761EB07010CFB0EF7B0EB074072EB46
:1028F00017420CFB08F734BFA2EB0742B2EB0742CA
:1029000061EB17414FEA0C444FEA910706FB07FCC5
:102910004FEA1C4C0CFB0BF7B0EBC74072EB573285
:1029200003FB0CF734BFA2EBC742B2EBC74261EB2B
:1029300057310CFB0EF7B0EBC70072EB57720CFB74
:1029400008F734BFA2EBC702B2EBC70261EB5771C5
:10295000039F4FEA816141EA921104EBCC044FEAF4
:10296000D1374FEA826206FB07FC42EA90124FEA37
:1029700080604FEA1C4C0CFB0BF7D21B03FB0CF7DF
:1029800061EB07010CFB0EF7B0EB074072EB17424F
:102990000CFB08F734BFA2EB0742B2EB074261EB36
:1029A00017414FEA8C554FEA910704EB9C2406FB34
:1029B00007FC4FEA1C4C0CFB0BF7B0EBC74072EB6B
:1029C000573203FB0CF734BFA2EBC742B2EBC7424E
:1029D00061EB57310CFB0EF7B0EBC70072EB57728F
:1029E0000CFB08F734BFA2EBC702B2EBC70261EBE6
:1029F000577115EB4C254FEA816141EA92114FEA7C
:102A000082624FEAD13742EA901206FB07FC44F19A
:102A100000044FEA80604FEA1C4C0CFB0BF7D21B02
:102A200003FB0CF761EB07010CFB0EF7B0EB074063
:102A300072EB17420CFB08F734BFA2EB0742B2EB74
:102A4000074261EB174115EB1C154FEA813141EA52
:102A500092414FEA823242EA90424FEA80304FEA96
:102A60000C7644F1000448EA03434EEA0B484FF069
:102A7000000EB2EB080C71EB030724BF6246394627
:102A80004EEB0E0E4FF0000B0018524149414BEB3C
:102A90000B0BB2EB080C71EB03077BF1000B24BFAF
:102AA000624639464EEB0E0E4FF0000B00185241B5
:102AB00049414BEB0B0BB2EB080C71EB03077BF1BD
:102AC000000B24BF624639464EEB0E0E51EA020758
:102AD00018BF46F0010616EB0E7655F1000254F1D0
:102AE000000103D5BDE88901BDE80088BDE8890182
:102AF000BDE80048B619524141EB0101A3F10103C1
:102B0000704780807F7E7D7C7B7A7978777676755A
:102B10007473727171706F6E6E6D6C6C6B6A6A69D2
:102B20006868676666656464636362616160605F6C
:102B30005F5E5E5D5D5C5C5B5B5A5A5959585857E5
:102B4000575656555555545453535252525151504D
:102B500050504F4F4F4E4E4D4D4D4C4C4C4B4B4BA0
:102B60004A4A4A49494948484847474747464646E6
:102B70004545454444444443434343424242424121
:102B80004141000046EA0646A3F570534FEA164657
:102B900046EA42564FEAD22242EA415210B54FEA83
:102BA000D121A3F1010300F02FF820F0004000F143
:102BB000020C00F0004701EB00501146BCF5006F1D
:102BC00040EA070000D210BDBAF1000F0AD01CB5D0
:102BD00003B44FF004004FF004014FF000000FBCAD
:102BE000BDE810404FF00001BBF1010FB9BF044830
:102BF0004FF0FF310348002140EA070010BD00BF3D
:102C0000FFFFEF7F0000F07F002B9C4630D4770061
:102C10002BD01CB54FEA370703B44FF010004FF02C
:102C20001001BAF1000F06D0BCF1000FDCBF40F07C
:102C3000080040F008014FF000000FBCBDE8104054
:102C40000BF1010BBBF1010F08BF5FEA170722BFB1
:102C500012F1010211F101014FF0004143F10003B3
:102C600000F0004043EA00007047F9D35708D0E76E
:102C700046EA064613F1400F4FEA16461FDD13F1F0
:102C8000200FDFBF16430A46002120335B42BED02F
:102C9000C3F1200746EA064602FA07F74FEA16464E
:102CA00046EA0706C3F1200722FA03F201FA07F702
:102CB00021FA03F14FF0000342EA0702A7E746EAD0
:102CC000020646EA06464FEA164646EA0106BCBF39
:102CD00046EA0646360C4FF000034FF000024FF074
:102CE000000194E72DE9804C9A46934670B491E830
:102CF000380007C831EA400C48BF34EA430C03D51A
:102D0000FFF7A3FDFFF780FFF0BCBDE8008C2DE9C5
:102D1000804C9A46934670B491E8380007C831EA6F
:102D2000400C48BF34EA430C03D5FFF78EFDFFF794
:102D300029FFF0BCBDE8008C2DE9804C9A469346F3
:102D400070B491E8380007C810F0804F08BF13F046
:102D5000804F03D100F01AF8FFF756FFF0BCBDE832
:102D6000008C2DE9804C9A46934670B491E8380067
:102D700007C810F0804F08BF13F0804F03D100F058
:102D800005F8FFF7FFFEF0BCBDE8008C20F07F47A0
:102D900080EA030023F07F4C07EB0C03A3F57C5380
:102DA00000F00040A3F1FE0392F0000F00F0B380AA
:102DB00095F0000F00F077802DE901494FEA1140AE
:102DC0004FEA144621EA004800FB06FC24EA0647C5
:102DD00008FB06F607FB08F800FB07F718EB0648A8
:102DE0004CEB164C4FEA124B18EB07484FEA1546CE
:102DF0004CEB174022EA0B4E0BFB06FC25EA06477C
:102E00000EFB06F607FB0EFE0BFB07F71EEB064E4E
:102E10004CEB164C4FF000061EEB074E4CEB174BDD
:102E200018EB0B0840F1000018EB0E0B58EB0008F4
:102E300040F100008F1A4FF000013CBFC943661BF0
:102E400014BFB5EB040C00213CBFC943F61B4FEA8D
:102E500017444EEA8E0E27EA04454FEA1C4704FB4E
:102E600007622CEA074C05FB07F70CFB05F604FB91
:102E70000CFC16EB074642EB174216EB0C4642EBF6
:102E80001C421BEB060658EB0202414146EA9E0635
:102E900001D5BDE80189B619524141EB0101A3F109
:102EA0000103BDE801894FEA14454FEA114724EABE
:102EB000054621EA074C05FB07F406FB07F70CFB68
:102EC00006F105FB0CFC11EB074144EB17444FEAFC
:102ED000124711EB0C4144EB1C4422EA074C05FB62
:102EE00007F206FB07F70CFB06F605FB0CFC16EBDE
:102EF000074642EB174216EB0C4642EB1C456A189C
:102F000054F1000148BF7047B619524141EB01012D
:102F1000A3F10103704795F0000F37D04FEA11423B
:102F20004FEA144721EA024624EA074C02FB07F164
:102F300006FB07F70CFB06F402FB0CFC14EB074442
:102F400041EB17414FEA154714EB0C4441EB1C4190
:102F500025EA074C02FB07F506FB07F70CFB06F614
:102F600002FB0CFC16EB074645EB174516EB0C462F
:102F700045EB1C42121951F1000148BF7047B619C8
:102F8000524141EB0101A3F1010370474FEA14459F
:102F90004FEA114724EA054621EA074C05FB07F1F1
:102FA00006FB07F70CFB06F24FF0000605FB0CFCD6
:102FB00012EB074241EB174112EB0C4251EB1C4163
:102FC00048BF7047921841EB0101A3F1010370471C
:102FD000FEE7704710B590F821100022022905D0B5
:102FE0000421816380F82020012010BD01680B6856
:102FF00023F00E030B6001680B6823F001030B60E4
:1030000090F84030C46B012101FA03F3636080F84B
:10301000211080F82020104610BD000010B590F857
:1030200021100024022903D00421816301243DE002
:1030300001680A6822F00E020A6001680A6822F03C
:1030400001020A601A4A0168914201D1012121E07E
:10305000174A1432914201D110211BE0144A283240
:10306000914201D1891515E0114A3C32914201D1BA
:1030700089140FE00E4A5032914202D14FF4803150
:1030800008E00B4A6432914202D14FF4801101E012
:103090004FF08071064A083A5160012180F82110F2
:1030A000002180F82010416B01B18847204610BDF7
:1030B000080002402DE9F84FDFF8B8910024A9F18B
:1030C000040B23460F2709F1040AABF1040EC9E0F3
:1030D0000125A5402A40AA427DD1674ED1F804C0FF
:1030E000ACEB0608B44532D014DCBCF1030F3AD087
:1030F00009DCBCF1000F2AD0BCF1010F1CD0BCF1DF
:10310000020F31D11DE0BCF1110F17D0BCF1120F2D
:103110002AD119E0B8F5881F19D006DCB8F5803F30
:1031200015D0B8F5801F1FD111E0B8F5001F0ED0E3
:10313000B8F5041F18D10AE0CB6815E0CB681B1D59
:1031400012E0CB6808330FE0CB680C330CE08B68DF
:103150002BB1012B4FF0080303D0456104E0042399
:1031600002E0056100E00023FF2A01D8064601E0E5
:1031700000F104064FEA840501D9A5F12005D6F82F
:10318000008007FA05FC28EA0C0803FA05F548EA6E
:103190000508C6F800804D68ED0062D5374DAE6970
:1031A00046F00106AE61AD6924F0030605F00105A5
:1031B0000095334D06EB050CDCF80850A607360FDA
:1031C00007FA06F825EA0805DFF8B880404503D17C
:1031D0004FF0000817E044E0DFF8AC80404502D132
:1031E0004FF001080FE0DFF8A480404502D14FF016
:1031F000020808E0DFF89880404502D14FF003084C
:1032000001E04FF0040808FA06F848EA0508CCF88F
:1032100008804D68D9F80060ED024D4601D516438F
:1032200000E096432E604D68DAF80060AD02554626
:1032300001D5164300E096432E604D68DBF8006030
:10324000AD035D4601D5164300E096432E604D6800
:10325000DEF80060ED03754601D5164300E09643A5
:103260002E60641C0D682A46E5407FF431AFBDE84E
:10327000F88F000008040140000011100010024007
:103280000000014000080140000C01400010014016
:1032900000140140C26821EA02030A4043EA0241E5
:1032A000016170470AB1016170470904FBE7000042
:1032B00001488068704700003000002070B50400AD
:1032C00025D094F83D00002520B984F83C502046D4
:1032D00000F004FA242084F83D002068016821F001
:1032E000010101602068016841F40041016020682B
:1032F000016821F40041016000F098FB4D4A6168CB
:10330000914201D84C4900E04C49884201D2012049
:1033100070BD4B492368B0FBF1F15E6826F03F06B3
:103320000E435E606368934206D94FF49673594327
:103330004FF47A73B1FBF3F12368491C1E6A26F03F
:103340003F06314319626168914210D84900401E1E
:10335000B0FBF1F2521CC2F30B02042A01D204208A
:1033600022E0B0FBF1F0401CC0F30B001CE0A268AF
:10337000F2B301EBC10303EB0116431EB3FBF6F3FB
:103380005B1C43F480431B0549D092B301EBC1029F
:1033900002EB0111401EB0FBF1F0401CC0F30B002A
:1033A00040F4804040F400402168CA694CF6FF7345
:1033B0009A431043C861D4E90710014320680268AA
:1033C00022F0C00211430160D4E9030101432068E7
:1033D000826848F2FF339A4311438160D4E90501C2
:1033E00008432168CA6822F0FF021043C86001E068
:1033F0000EE016E02068016841F0010101602564DB
:10340000202084F83D00256384F83E50002070BDE4
:1034100001EB4106431EB3FBF6F35B1CB3E701204F
:10342000C2E701EB4101401EB0FBF1F0401CC0F3CC
:103430000B00B7E7A086010080841E0000093D0054
:1034400040420F002DE9FF4F81B089460446FFF747
:103450002FFF054694F83D004FF0000820287DD14D
:103460001923012250492046009501F049F900280E
:1034700074D194F83C00012870D0012084F83C00FD
:1034800020680168C90703D1016841F001010160AA
:103490002068016821F400610160242084F83D0067
:1034A000002626644148E0624FF0011B2027206877
:1034B000016841F480710160009500225946204660
:1034C000049B01F01DF950B120680068C00502D5C9
:1034D0004FF400702064032005B0BDE8F08F216830
:1034E00009F0FE000861FFF7E3FE21680546486920
:1034F0004969C0F34000C1F380214FF0A00A0FE0FA
:10350000FFF7D6FE411B0498814200D808B984F821
:103510003DA0216848694969C0F34000C1F380219A
:1035200094F83D20A02A02D008B90029E8D084F8F8
:103530003D7020684169C943890716D4016841F488
:1035400000710160206841698069192301221649D0
:103550002046009501F0D4F8B8B900E021E084F8E5
:103560003D7084F83C600020B6E7016841F40071CA
:10357000016021686FF480604861192301220A49C3
:103580002046009501F0BCF808B10120A4E703989B
:1035900008F1010880458AD384F83D7084F83C60C6
:1035A000F3E7022098E70000020010000000FFFF90
:1035B0002DE9F84F1F4690468A460446DDF82890CC
:1035C000FFF776FE054694F83D0020287FD11923A9
:1035D000012240492046009501F092F8002876D15A
:1035E00094F83C00012872D0012084F83C00206847
:1035F0000168C90703D1016841F001010160206839
:10360000016821F400610160212084F83D00102050
:1036100084F83E0000262664C4F824806785608D07
:1036200020852D48E0622B464A465146204600F050
:10363000EDFF90B9206841698069009036E02A4624
:103640004946204601F002F950B1206C042804D10B
:103650002068016841F4007101600120BDE8F88F25
:10366000606A216800780861606A401C6062618D50
:10367000491E6185218D491E89B2218522685369C1
:10368000DB435B070BD451B100781061606A401CCA
:103690006062608D401E6085208D401E20852A4618
:1036A0004946204601F000F80028CED1208D0028A0
:1036B000C5D154F83D0B016841F400710160202030
:1036C00004F81E09E67766770020C7E7FFE70220C7
:1036D000C4E70000020010000000FFFF10B586B034
:1036E0000021009101910291039100680F498842E5
:1036F0001AD10F4CA06940F00800A061A06969468A
:1037000000F008000490C0200090122001900320D7
:1037100003900848FFF7CEFCE06940F40010E06138
:10372000E06900F40010049006B010BD00540040A1
:1037300000100240000C01400248816802781144E8
:103740008160704730000020074810B5016841F0E3
:1037500010010160032000F0A1F80F2000F006F82E
:1037600000F04AF8002010BD0020024030B50546A8
:103770001C4887B0816941F400618161806906A9B4
:1037800000F40060009001A800F030F900F05EF94C
:103790001549164AB0FBF1F11548491E0260416017
:1037A00040F2E7320021C0E903218160816100F02D
:1037B00015FB040012D10E4800F03EFB04000DD1B1
:1037C000192000F03DF8102D07D2002229461920BB
:1037D00000F044F80748056000E0012407B02046E7
:1037E00030BD00000010024040420F00002C01409C
:1037F000280B0020340000200F4808B5816941F0F3
:1038000001018161816901F001010091C16941F00B
:103810008051C161C069002200F0805000900F21EA
:10382000901E00F01BF80548416821F0E06141F06E
:103830000071416008BD000000100240000001401E
:10384000002809DB00F01F0201219140400980009F
:1038500000F1E020C0F8001170470000F0B40E4BFA
:103860001B680C46C3F30223C3F10705042D00D9DE
:103870000425191D072901D2002300E0DB1E0126C3
:1038800006FA05F1491E214099409E40761E1640D9
:103890003143F0BC01F0D9BC0CED00E0064900F06A
:1038A000070208684FF6FF03184040EA0220034A67
:1038B00010430860704700000CED00E00000FA05BE
:1038C0002DE9F0470F46050061D0434E306800F007
:1038D0000700B84209D2306820F007003843306052
:1038E000306800F00700B84251D128683B4C81078E
:1038F00012D5400703D5606840F4E0606060287826
:10390000000703D5606840F4605060606068A96893
:1039100020F0F000084360602878C00728D068686D
:10392000012810D02168022810D0890700292EDA3A
:10393000616821F0030101436160FFF7B9FC804633
:1039400041F288390DE021688903EFE78901EDE74D
:10395000FFF7AEFCA0EB0801494502D90320BDE802
:10396000F0876068696800F00C00B0EB810FEFD160
:10397000306800F00700B8420BD9306820F007002B
:1039800038433060306800F00700B84201D00120B1
:10399000E5E72878400705D56068E96820F4E0602D
:1039A000084360602878000706D56068296920F41C
:1039B000605040EAC100606000F058F86168084A51
:1039C000C1F30311515CC84006490860064800680D
:1039D000FFF7CCFE0020C2E70020024000100240AA
:1039E000068900083C000020340000200F220260FD
:1039F0000C4A536803F003034360536803F0F00379
:103A00008360536803F4E063C36052684FF4E0637B
:103A100003EAD20202610448006800F0070008606F
:103A20007047000000100240002002400448054991
:103A300000684968044AC1F30221515CC8407047DC
:103A40003C00002000100240168900080448054987
:103A500000684968044AC1F3C221515CC8407047FC
:103A60003C00002000100240168900080E4A5168F0
:103A70000E4801F00C03042B11D0082B0FD10C4879
:103A8000C1F38343C903C05C0AD55168084AC1F336
:103A90004041921E515C054A5043B0FBF1F0704723
:103AA00004494843704700000010024000127A00A9
:103AB000F688000800093D002DE9F84F040070D099
:103AC0002078C04DC00749D06868C0F38100012844
:103AD00007D06868C0F38100022809D16868C00374
:103AE00006D52868800339D560680028E7D035E01E
:103AF0006068B0F5803F0BD010B1B0F5A02F11D0A9
:103B0000286820F480302860286820F4802002E0B3
:103B1000286840F480302860606890B1FFF7C8FBE7
:103B200006460AE0286840F480202860F0E700BFDD
:103B3000FFF7BEFB801B642873D828688003F7D585
:103B40000CE0FFF7B5FB064605E000BFFFF7B0FB52
:103B5000801B6428F0D828688003F7D420789A4E18
:103B600080074FF001094FF0000839D5686810F060
:103B70000C0F07D06868C0F38100022809D168687B
:103B8000C00306D42868800714D52069012808D10D
:103B900010E02069B0B1C6F80090FFF789FB074636
:103BA00005E00AE1FFF784FBC01B0228C4D828689F
:103BB0008007F7D52868616920F0F80040EAC10065
:103BC00028600DE0C6F80080FFF772FB074604E0AE
:103BD000FFF76EFBC01B022823D828688007F7D4A4
:103BE000207800072CD57948A169D9B1C0F8009098
:103BF000FFF75EFB074604E0FFF75AFBC01B0228F5
:103C00000FD8686A8007F7D571484FF4FA510068F9
:103C1000B0FBF1F0009000BF0098411E0091FAD275
:103C20000EE080E0C0F80080FFF742FB074604E0AA
:103C3000FFF73EFBC01B022875D8686A8007F7D4DF
:103C40002078400760D5E8690027C00008D4E869FB
:103C500040F08050E861E869012700F08050009052
:103C60005C480168C90513D40168834641F480713A
:103C70000160FFF71DFB824606E000BFFFF718FB5F
:103C8000A0EB0A0064284ED8DBF80000C005F5D58B
:103C9000E06801280AD008B1052813D0286A20F06E
:103CA00001002862286A20F0040002E0286A40F03F
:103CB00001002862E06841F2883B98B1FFF7F8FA0A
:103CC00082460BE0286A40F004002862EEE700BF5D
:103CD000FFF7EEFAA0EB0A0159455AD8286A800787
:103CE000F6D50CE0FFF7E4FA824605E0FFF7E0FACC
:103CF000A0EB0A0159454CD8286A8007F6D41FB1B9
:103D0000E86920F08050E861E06988B36968C1F330
:103D10008101022944D00228C6F8608004D0FFF750
:103D2000C7FA044638E034E0FFF7C2FA074604E079
:103D3000FFF7BEFAC01B02282BD828688001F7D4F1
:103D4000206AB0F5803F05D16868A16820F4003092
:103D500008436860D4E908010843696821F47411D4
:103D600008436860C6F86090FFF7A2FA044606E0D0
:103D700025E000BFFFF79CFA001B022809D828683D
:103D80008001F7D51BE000BFFFF792FA001B022865
:103D900002D90320BDE8F88F28688001F4D40EE032
:103DA0000128F7D06868226A00F48031914204D17A
:103DB000616A00F47010884201D00120EAE7002017
:103DC000E8E7000000100240000042428004424246
:103DD0003C000020007000407047704710B50400A0
:103DE00003D094F83D0010B107E0012010BD002081
:103DF00084F83C00204600F01EF8022084F83D00C4
:103E0000211D206801F08AF8012084F8460084F81A
:103E10003E0084F83F0084F8400084F8410084F8B4
:103E2000420084F8430084F8440084F8450084F894
:103E30003D00002010BD704790F83D10012901D0D1
:103E400001207047022180F83D100168CA6842F0E5
:103E50000102CA6000680B49884208D0B0F1804F67
:103E600005D00949884202D00849884204D18168B6
:103E700001F00701062903D0016841F0010101604A
:103E800000207047002C0140000400400008004062
:103E900070472DE9F04104460068C66805694FF097
:103EA0000007A90713D5B10711D5F91E016101203B
:103EB0002077206880698007204602D0FFF7E8FF5E
:103EC00004E000F07EF8204600F07CF827776807D1
:103ED00016D5700714D521686FF004000861022020
:103EE00020772068806910F4407F204602D0FFF7D9
:103EF000CFFF04E000F065F8204600F063F8277774
:103F0000280715D5300713D521686FF00800086120
:103F1000042020772068C0698007204602D0FFF780
:103F2000B7FF04E000F04DF8204600F04BF827778B
:103F3000E80616D5F00614D521686FF01000086168
:103F4000082020772068C06910F4407F204602D006
:103F5000FFF79EFF04E000F034F8204600F032F84E
:103F60002777E80708D0F00706D021686FF0010036
:103F70000861204600F028F8280608D5300606D546
:103F800021686FF0800008612046FFF725FF680672
:103F900008D5700606D521686FF0400008612046FC
:103FA00000F01CF8A8060AD5B00608D521686FF005
:103FB000200008612046BDE8F041FFF70EBFBDE8D4
:103FC000F08170477047000000680349884201D1C2
:103FD000FFF7B2BB70470000002C014070477047EC
:103FE00070470000F8B5016804460868CA684B6964
:103FF00010F00F0F4FF0000559D003F0010602F446
:104000009077374365D0C10705D0D10503D5616CE2
:1040100041F001016164410705D5D90703D0616C06
:1040200041F002016164810705D5D90703D0616CB5
:1040300041F004016164010707D502F0200131431A
:1040400003D0616C41F008016164616C00293AD0D1
:10405000800604D5900602D5204600F0CAFF2068ED
:104060004069616CC0F38010090700D460B320463A
:1040700000F098FF20684069400621D52068143080
:1040800050E8001F21F0400140E80012002AF5D15D
:10409000E06BA8B16D494163E06BFEF7BFFF0028FC
:1040A00011D0E06B416B01B0BDE8F04008478306DA
:1040B0000FD593060DD52046BDE8F84000F099BF16
:1040C0002046FFF78DFFF8BD2046FFF789FF6564A6
:1040D000F8BD266B2023012E7CD1C6067AD5D606E4
:1040E00078D508684868009048694FF00206400695
:1040F00040D5E16B086840680004000CE8D0A28D50
:104100008242E5D9E085886920282DD020680C30CE
:1041100050E8001F21F4807140E80012002AF5D118
:104120002068143050E8001F21F0010140E800121F
:10413000002AF5D12068143050E8001F21F040011A
:1041400040E80012002AF5D184F842302563206847
:104150000C3050E8001F21F0100140E80012002A46
:10416000F5D1E06BFEF736FF6663A08DE18D401A56
:1041700081B22AE0A08DE18D401A81B2E08D002845
:10418000A6D00029A4D022680C3252E8000F20F4F7
:10419000907042E80007002FF5D12068143050E8F5
:1041A000002F22F0010240E80027002FF5D184F80B
:1041B0004230256320680C3050E8002F22F01002B6
:1041C00040E80023002BF5D166632046FFF707FF88
:1041D000F8BDFFE705062BD5150629D594F8410053
:1041E0002128F5D1A068B0F5805F01D12069B0B178
:1041F000206A411C2162216800784860E08C401EE2
:104200000004000CE084E3D12068C16821F0800143
:10421000C1602068C16841F04001C160D8E7206AF0
:104220000088C0F308004860206A801C2062E5E72F
:104230004006CDD55006CBD5CA68204622F04002B4
:10424000CA6084F8413000F0C7F9C1E7954F000813
:1042500070B5040004D094F84100002510B106E0C8
:10426000012070BD84F84050204600F023F824203F
:1042700084F841002068C16821F40051C1602046E3
:1042800000F018FF2068016921F490410161206865
:10429000416921F02A0141612068C16841F400515F
:1042A000C1606564202084F8410084F842006563A1
:1042B000002070BDF0B585B00024009401940294F4
:1042C00003940368394F022039490322394D4602CD
:1042D000BB421AD18B6943F480438B618B6903F431
:1042E000804304938B6943F004038B6189690392D3
:1042F00001F0040104910102CDE90010694628464D
:10430000FEF7D8FECDE900644AE02B4FBB4229D12D
:10431000CB6943F40033CB61CB6903F400330493DE
:104320008B6943F004038B618969039201F00401F6
:1043300004910421CDE9001069462846FEF7BAFE33
:104340000820CDE90004694628460294FEF7B2FE33
:10435000002205212620FFF781FA2620FFF770FAB8
:1043600005B0F0BD154DAB42FAD1CB6943F48023C3
:10437000CB61CB6903F4802304938B6943F008037A
:104380008B6189690E4D01F00801CDE90321CDE96A
:10439000006069462846FEF78DFEE814CDE900046A
:1043A000694628460294FEF785FED9E700380140A9
:1043B0000010024000080140004400400048004056
:1043C000000C01402DE9F84F044690F842009A464F
:1043D00016460D46202802D00220BDE8F88FB5B160
:1043E000AEB100206064222184F842102063FEF701
:1043F0005FFFA6858146E685A0684FF48058202798
:10440000404501D1206920B12E46002529E0012038
:10441000E3E7002625E04B46002220212046CDF888
:1044200000A000F0BEFE18B184F842700320D4E76B
:1044300026B1A06840451AD038B108E0206840682D
:10444000C0F3080025F8020B08E0206978B1206865
:10445000406800F07F0000BF06F8010BE08D401EB1
:10446000E085E08D0028D6D184F84270B5E7206859
:104470004068F1E790F84230202B01D002207047CD
:1044800021B11AB10023036300F070BE0120704710
:1044900038B500682249884240D141142148FEF7CE
:1044A000F9FE214C002520787F282AD2A2781F49C6
:1044B0000A2A03D00A54401C207027E00D541B48E0
:1044C00000F05AFF194800F0F5FFD0B117497F22DC
:1044D00001F18000FCF708FB1448803080F87F5021
:1044E0000120607000956946A06801F087FF009880
:1044F00038B10F494FF080500860BFF34F8FBFF3C2
:104500006F8F257080210948FCF7C7FABDE8384055
:1045100005490122891C0748FFF7ACBF38BD0000E0
:104520000044004000100140180000201006002048
:1045300004ED00E0AC0700202DE9F843044690F8B4
:104540004100984616460D46202802D00220BDE8BC
:10455000F88385B17EB100206064212084F8410099
:10456000FEF7A6FEA6848146E684A0682027B0F563
:10457000805F02D003E00120E9E7206910B12E46F8
:1045800000250EE000260CE08021204600F009FE08
:10459000A8B9C6B116F8010B21684860E08C401E2E
:1045A000E084E08C4B464FF00002CDF800800028FC
:1045B000EAD14FF04001204600F0F3FD40B184F80D
:1045C00041700320C3E735F8020BC0F30800E3E7AE
:1045D00084F841700020BAE77047FEE701684A6935
:1045E000D24352050FD46FF480624A61002140F833
:1045F000301F202242738173026942F0040202617B
:10460000017301207047002070470000F8B5044690
:10461000C06A1E460D461746082807D0012805D057
:1046200010F5803F02D0206B122804D12068016869
:1046300041F480710160134600224FF001112046C1
:10464000009600F05DF840B120680068C00502D512
:104650004FF4007020640320F8BD2069B0F5804F4E
:104660000ED00620216800EAD51040F0F000086165
:1046700033463A460B49204600F08AF878B902E002
:1046800005F0FE0000E0E8B2216808610549334604
:104690003A46891F204600F07BF80028DCD0012034
:1046A000F8BD00000800010070B516460D4604462E
:1046B0001EE02046FFF792FF08B1012070BD681C84
:1046C00016D0FEF7F5FD801BA84200D885B92068FA
:1046D0004069C04340070BD5002044F8300F20212B
:1046E0006173A073216941F0200121612073E4E727
:1046F00020684069C0434007DBD4002070BD000043
:104700002DE9F047984617460D460446C1F3074683
:10471000DDF820902AE000BFB8F1FF3F26D0FEF779
:10472000C7FDA0EB0901414502D8B8F1000F1DD12A
:104730002068012E16D0806925EA00000004000CD4
:1047400012D00020B84211D1002044F8300F2021AF
:104750006173A073216941F0200121612073012060
:10476000BDE8F0874069E7E70120EBE72068012E0C
:104770000AD0806925EA00000004000C06D0002061
:10478000B842C9D00020EBE74069F3E70120F7E722
:104790002DE9F047984616460D4604464FF00009AD
:1047A0004FF0200AC1F3074723E020684069C04367
:1047B000400515D42068016841F40071016021684A
:1047C0006FF480604861C4F8309084F83DA084F8AC
:1047D0003E90216C41F00401216484F83C9021E07A
:1047E000701C06D0FEF764FDA0EB0800B04203D8B1
:1047F00016B1012F1FD021E02068012F15D080694C
:1048000025EA00000004000C18D000BF44F8309FD7
:1048100084F80DA084F80E90216941F020012161F7
:1048200084F80C900120BDE8F087406925EA00007B
:104830000004000CEAD12068406901E0206880692A
:1048400025EA00000004000CAFD1ECE770B5164675
:104850000D4604461EE02046FFF7C0FE08B10120C9
:1048600070BD681C16D0FEF723FD801BA84200D83F
:1048700085B920684069C04300060BD5002044F884
:10488000300F20216173A073216941F02001216163
:104890002073E4E720684069C0430006DBD40020B1
:1048A00070BD000070B586B000241C4800940194CF
:1048B00002940394816941F010018161816901F0E2
:1048C00010010491816941F020018161816901F049
:1048D00020010491816941F004018161816901F045
:1048E00004010491816941F00801816180690C4EE5
:1048F00000F008004FF4005504900022294630468D
:10490000FEF7D0FC01200095CDE9010402200390C0
:1049100069463046FEF7CEFB06B070BD001002407F
:1049200000100140FEE7FEE770B50446A0210B48E9
:10493000FCF791F82046FBF7A5FF82B24FF4FA7519
:104940002B4621460648FFF7F7FD2B46BDE8704091
:10495000A02202490248FFF735BD00000C050020E7
:10496000F407002010B5002000F024F8BDE8104046
:1049700000F04AB970B5802813D2402911D20B4BF0
:10498000012401F007051E79AC40094BC90800EB72
:10499000C1100EB132B101E0012A03D0195CA1436C
:1049A000195470BD195C2143FAE70000080000208B
:1049B000A800002028B1FF224FF480610248FCF7D4
:1049C00042B80022F8E70000A8000020014A108049
:1049D000518070470800002010B501F039FB44F603
:1049E0002063012278215448FEF72CFD08B10020F5
:1049F00010BD40F6C210401EFDD1AE22002178202D
:104A000001F02CFB20220021782001F027FB10224E
:104A10000021782001F022FBB0220021782001F053
:104A20001DFBC8220021782001F018FB002211464E
:104A3000782001F013FB10220021782001F00EFBFA
:104A400040220021782001F009FB812200217820FA
:104A500001F004FBFF220021782001F0FFFAA122DF
:104A60000021782001F0FAFAA6220021782001F036
:104A7000F5FAA8220021782001F0F0FA3F22002167
:104A8000782001F0EBFAA4220021782001F0E6FA68
:104A9000D3220021782001F0E1FA0022114678208B
:104AA00001F0DCFAD5220021782001F0D7FAF022BB
:104AB0000021782001F0D2FAD9220021782001F0DB
:104AC000CDFA22220021782001F0C8FADA22002152
:104AD000782001F0C3FA12220021782001F0BEFAFA
:104AE000DB220021782001F0B9FA20220021782071
:104AF00001F0B4FA8D220021782001F0AFFA1422DF
:104B00000021782001F0AAFAAF220021782001F0DC
:104B1000A5FA2E220021782001F0A0FA0020FFF74C
:104B200049FF00F071F80548002101804180012112
:104B30004171084610BD0000100700200800002049
:104B40002DE9F047814625480D46924601882A788E
:104B50001144802905D2804640886978084440285D
:104B600002D30020BDE8F08700262AE0A9F1200149
:104B700001FB00606A68002432F810701DE000BF7D
:104B800007FA04F0000409D5B8F80210B8F80000DC
:104B90003144204489B280B252460BE0BAF1000F92
:104BA0001AD00022B8F80210B8F8000031442044AE
:104BB00089B280B2FFF7DEFE641C2878A042DFD8FD
:104BC000761C6878B042D1D8B8F800102A784846E8
:104BD0001144A8F80010C5E70122E3E7080000200F
:104BE00070B515460E46044609E02A463146FFF7E1
:104BF000A7FF2178884201D0C8B270BD641C20781C
:104C00000028F2D1C0B270BD70B5104D002400BFB5
:104C100004F1B000C2B20021782001F01FFA002296
:104C20001146782001F01AFA10220021782001F0B4
:104C300015FA05EBC41280234021782001F01EFAFA
:104C4000641CE4B2082CE3D370BD0000A80000206F
:104C5000ACB018216846FBF720FF182106A8FBF727
:104C60001CFF234C4FF0FF352946012001F022FAAA
:104C70002946606900F094FE70BB607848B37F22DB
:104C80001C490CA8FBF730FF00208DF8AF006070C6
:104C900069460CA800F0BCFBD8B10B99059802F04E
:104CA00087FD04D10A99049802F082FD11D01822E0
:104CB00069461148FBF795FE1822694606A8FBF7DE
:104CC00090FE206901F05CFC4FF400510B48FEF7A8
:104CD000E1FA606900F03CFE002001F06DFA014647
:104CE000820007A000F046FC642000F01DFEBBE738
:104CF0001800002090060020BC0800200010014091
:104D0000475053205461736B20737461636B207739
:104D1000617465726D61726B3A20256C7520776FD6
:104D20007264732028256C75206279746573290A72
:104D30000000000086B018216846FBF7AEFE1E4C4E
:104D40001E4D4FF0FF3640F6B8373146686900F027
:104D500027FE0599606902F02BFD04D104992069B2
:104D600002F026FD15D0606910F0FF4F11D02069C8
:104D700010F0FF4F0DD018220F496846FBF731FEA7
:104D80000FA000F0F7FBD4E90421686800F0A2FC52
:104D900002E00FA000F0EEFB686900F0D9FD0020F2
:104DA00001F00AFA014682000DA000F0E3FB38464C
:104DB00000F0BAFDC9E70000BC0800201800002080
:104DC000475053206B686163206E68617500000076
:104DD0004750532067696F6E67206E6861750000E9
:104DE0004D515454205461736B20737461636B2074
:104DF00077617465726D61726B3A20256C752077EE
:104E00006F7264732028256C75206279746573292C
:104E10000A0000000F4C86B04FF0FF35294660694C
:104E200000F0BEFD18220C496846FBF7DAFDDDE90B
:104E3000041001F073F9606900F08AFD002001F0B0
:104E4000BBF90146820005A000F094FB002001F0B0
:104E50000BFCE3E718000020BC0800204F4C454441
:104E6000205461736B20737461636B207761746588
:104E7000726D61726B3A20256C7520776F72647366
:104E80002028256C75206279746573290A0000005A
:104E900010B5502080F31188BFF34F8FBFF36F8F91
:104EA00002F022F818B104494FF080500860002049
:104EB00080F3118810BD000004ED00E010B590B043
:104EC00028216846FBF7E9FD14210AA8FBF7E5FD58
:104ED00002200090012004901020002405900794E7
:104EE0006846FEF7E9FD08B172B6FEE70F20CDE98E
:104EF0000A040C940D9400210AA80E94FEF7E0FC1D
:104F0000002801D072B6FEE710B010BD7047000057
:104F10000148FEF7BEBF0000280B0020F0B5026874
:104F2000194B1A4C1A4D4FF08047984205D0B842A1
:104F300003D0A04201D0A84203D122F070064A68F3
:104F40003243984205D0B84203D0A04201D0A842D3
:104F500003D122F44074CA6822434C6922F08002D3
:104F6000224302608A68C2620A688262984201D162
:104F700009690163012141610169C90703D0016920
:104F800021F001010161F0BD002C0140000400404E
:104F90000008004010B5406A0021C185C184FFF7B8
:104FA0001FF810BD01680C3151E8002F22F49072F7
:104FB00041E80023002BF5D10168143151E8002F9E
:104FC00022F0010241E80023002BF5D1016B0129F9
:104FD00009D101680C3151E8002F22F0100241E89C
:104FE0000023002BF5D1202180F84210002101631D
:104FF000704708B590F84210222901D0022008BD60
:1050000082684FF480539A4201D1016921B1816ACB
:105010009A421BD04AB10AE00268816A5268C2F320
:1050200008020A80816A891C08E0026972B102687C
:10503000526802F07F020A70816A491C8162C18D48
:10504000491E0904090CC18503D01BE0026852689F
:10505000F1E70168CA6822F02002CA600168CA68E4
:1050600022F48072CA6001684A6922F001024A6132
:10507000202180F8421000214163026B012A03D0F5
:10508000FFF706FA002008BD016301680C3151E802
:10509000002F22F0100241E80023002BF5D1016817
:1050A0000A68D20602D50A6849680091818DFEF728
:1050B00096FFE7E770B5044600680169E26821F4ED
:1050C0004051114301612169A068084361690843A7
:1050D0002168CA6841F20C639A430243CA6020689F
:1050E0004169A26921F44071114341611E49206860
:1050F000884202D1FEF7AAFC01E0FEF797FC00EB24
:10510000C00101EB0012606864218000B2FBF0F383
:10511000B3FBF1F36FF018067343B2FBF0F5B2FB8B
:10512000F0F605EB8305322303EB0515B5FBF1F52E
:10513000B6FBF1F605F0F00505EB0615B2FBF0F64F
:10514000B2FBF0F0B0FBF1F06FF01802504306EB49
:10515000800003EB0010B0FBF1F0216800F00F00BD
:105160002844886070BD000000380140816282855B
:10517000C28500214164222180F84210016921B1D9
:105180000168CA6842F48072CA6001684A6942F0E4
:1051900001024A610068C16841F02001C16000203D
:1051A00070472DE9F843984617460D460446089E79
:1051B00024E0701C22D0FEF77BF8A0EB0800B04280
:1051C0001AD8CEB12068C168490717D5802D15D0EF
:1051D000402D13D00168C94309070FD40168002589
:1051E000406800902046FFF7DDFE0820606484F8E8
:1051F00040500120BDE8F8830320FBE720680068E9
:1052000035EA000004D00020B842D2D00020F1E7F7
:105210000120F9E70148FEF7E5BE0000AC070020D9
:10522000FEE7490050EAC12018BF04204A0D18BF0C
:1052300040F0010040F2FF72B2EB515F08BF40F056
:105240000200012808BF052070470907090E002841
:1052500004DB00F1E02080F80014704700F00F003C
:1052600000F1E02080F8141D704740F20132002068
:105270004FF0E04102F008BC024A0020110702F0A2
:1052800003BC000001FDFFFF10B50446D1E9000199
:1052900000F002F8206010BDF8B504460D466A46DD
:1052A00000F08AF800987E30009000281EDC002272
:1052B00013462046294602F01DF817D0002140F67B
:1052C00008004FF0000006462046294601F0CCFFBA
:1052D000044640F6080006EA00014FF0000034F0F2
:1052E000004004BF0220FCF7EAFF29E00098FF28F5
:1052F00028DB002108464FF0000000F440060022A1
:1053000013462046294602F0C1F88CBF002501252E
:105310000220FCF7D4FF4FF0FF4446B1002D0CBF34
:105320004FF400004FF48000B04218BF084C042135
:1053300008464FF00000002D04BF84F00040F8BD87
:105340002046F8BD20462946BDE8F84001F08CBF54
:10535000FFFF7F7F10B504460A46D4E900031946D3
:1053600000F0CEF8C4E9000110BD30380A2801D29F
:10537000012070470020704730B50021A1B00D46D4
:105380000B466C460EE00D2A0BD00A2A09D0202AC3
:1053900007D0242A01D0625402E015B962540125D5
:1053A000491C5B1CC25C002AEDD162542146FBF70C
:1053B00045FA21B030BD000010B51446002222602D
:1053C000114A21F000439342A8BF10BD53EA0002E6
:1053D00008BF10BDB3F5801FA8BF226807DA3622C8
:1053E00002F052FB6FF0350221F000432260DFF83B
:1053F0001CC06FF31E510CEB23531A4441F0FF51B4
:1054000041F00051226010BD0000F07F02FCFFFF60
:1054100030B50C4689B0054606221EA1FBF751FAAD
:10542000E0B900200690039004908DF81C008DF8E0
:1054300014002A212846FBF7F7F978B1401B1428FD
:105440000CDB05AA04A907A88DE8070003AB06AA90
:1054500012A12846FBF7B4F8052802D0002009B0B5
:1054600030BD0698A060039860609DF81C10217301
:10547000049820609DF814006073039800F02EFAE1
:1054800060619DF81410049800F028FA2061012052
:10549000E5E7000024474E474741000024474E47B8
:1054A00047412C25662C25662C25632C25662C254A
:1054B0006300000038B501780024242914D10121AB
:1054C00001E05440491C425C2A2A02D0002AF8D14B
:1054D0000AE008446A4605A1401CFBF771F80098F1
:1054E000A04201D1012038BD002038BD25303258FE
:1054F00000000000EFF30580002800D00120704775
:105500002DE9F04106460C4640F2FF75174635EA94
:1055100014502BD000221346304601F0EBFE25D06C
:105520003A463046214602F0AFFA06460C4635EAC6
:10553000145010D000221346304601F0DBFE15D186
:105540000220FCF7BCFEFFF797FE0A46214662F3F5
:105550001E01BDE8F0810220FCF7B1FEFFF785FED9
:105560000A46214662F31E01BDE8F081304621461D
:10557000BDE8F0810FB4802110B503AB0848029A52
:10558000FAF7C4FE0648FBF77DF9054982B24FF4ED
:105590007A73A1F1D800FEF7CFFF10BC5DF814FBC1
:1055A0003C08002098B0FEF7CFF8FFF787FCFFF724
:1055B00079F93E483C49002401603D49C0E90114A5
:1055C0004FF48041C0E9034144618461C4610462D5
:1055D000FDF774FE08B172B6FEE7344835499C30D9
:1055E0004FF4E1360160C0E901640C25C460C0E9F4
:1055F00004458461C461FEF72BFE08B172B6FEE774
:105600002A482D49E4300160C0E90164C460C0E962
:1056100004458461C461FEF71BFE08B172B6FEE763
:105620002248264954300160C0E90164C460C0E9E1
:1056300004458461C461FEF70BFE08B172B6FEE753
:105640001A4801221E499C30FEF714FFFFF7C4F9E7
:10565000159415A8169400F073F9194C1C22A41E79
:10566000184960616846FBF7BCF90021684600F004
:10567000C9F91449A0601C221C3107A8FBF7B1F935
:10568000002107A800F0BEF90E49E0601C22383165
:105690000EA8FBF7A6F900210EA800F0B3F92061CF
:1056A00000F049F9FEE70000005400401007002018
:1056B000801A0600004400400048004000380140C5
:1056C0001A000020A088000801460020842900D08C
:1056D000C81C70472DE9FF41484C8046164620788B
:1056E0000F4608B1607830BBFDF7E2FD0125606030
:1056F00009E043A0FFF718F943A14448FBF720FA5B
:1057000008B125700AE0207840B9FDF7D1FD616845
:1057100001F6B8318842ECD32078B0B1FDF7C8FD6E
:10572000606009E03AA0FFF7FFF83CA13748FBF7BB
:1057300007FA08B165700BE0607848B9FDF7B8FD6D
:10574000616801F6B8318842ECD36078002852D005
:1057500035A0FFF7E9F838A0FFF7E6F82B4840F24C
:105760005B733C4A3CA16438FAF7EAFD2748643889
:10577000FFF7DAF837481530FBF784F8024623487C
:105780003EA16438FAF7DCFD20486438FFF7CCF816
:10579000304A1E4815323FA16438FAF7D1FD1B4844
:1057A0006438FFF7C1F8304601F0A6FE04460D4606
:1057B000384601F0A1FE8DE833001448424637A177
:1057C000A030FAF7BDFD1148A030FBF75BF80246A8
:1057D0000E4836A16438FAF7B3FD0C486438FFF779
:1057E000A3F80A48A030FFF79FF804B035A0BDE841
:1057F000F041FFF799B8BDE8FF81000010000020DC
:1058000041540D0A000000004F4B00000C05002021
:1058100041542B43475245473F0D0A002B43475203
:1058200045473A20302C310041542B434D515454BC
:1058300053544152540D0A0041542B434D5154547A
:10584000414343513D302C22636C69656E743031A5
:10585000220D0A007C88000841542B434D515454BA
:10586000434F4E4E4543543D302C2225733A256418
:10587000222C36302C310D0A0000000041542B43FD
:105880004D515454544F5049433D302C25640D0A1A
:105890000000000025730D0A0000000025732C2075
:1058A000252E36662C20252E3666000041542B43CB
:1058B0004D5154545041594C4F41443D302C256476
:1058C0000D0A000041542B434D5154545055423D54
:1058D000302C312C36302C300D0A000070B50C46BF
:1058E00006460F4901F0A2FE01F096FF054664212D
:1058F000484301F0ADFF314602F00DF8094901F0CF
:1059000095FE0646284601F0A3FF314601F020FE31
:10591000532C01D0572C01D180F0004070BD000005
:105920000000C8420000704210B500B9012000F02C
:1059300031FD002010BD10B500F060FE002010BD4C
:1059400041684FF0010009B100F081BF00F074BF61
:1059500038B5002405460094FFF7CCFD90B16946A8
:10596000284601F0C9F8012801D0FF2038BD009871
:1059700088B10A494FF080500860BFF34F8FBFF3E2
:105980006F8F08E000231A461946284601F004F8F4
:10599000012800D0FF24204638BD000004ED00E0BF
:1059A00038B505004FF0000000900FD00024481CCF
:1059B0000ED001B10C46FFF79DFDB8B16A4600213B
:1059C000284601F0E7F8012816D104E0802038BD10
:1059D0004FF0FF34EFE7009880B109494FF0805055
:1059E0000860BFF34F8FBFF36F8F07E02146284653
:1059F00001F01EF9012801D0FF2038BD002038BD7C
:105A000004ED00E07FB50D4604464169B0F9080099
:105A100081B1A16971B1FFF757FED4E905128DE894
:105A20000700D4E900102B46226901F024FA039004
:105A300004B070BDFFF748FE03A9CDE90001208A3C
:105A40002B4682B2D4E9001001F0E8F9012801D018
:105A50000020EDE70398EBE72DE9F041184C0F46E5
:105A60000546E6682068001D00F092FB38B9206802
:105A700090F82C1001208840216981432161681C25
:105A800007D137B12168BDE8F0410E48091D00F08B
:105A9000D3BB20683544B5424560216805D2A06B70
:105AA000BDE8F041091D00F0AFBB606B091D00F0BF
:105AB000ABFBA06A854200D2A562BDE8F081000080
:105AC000400000204C0C00202DE9F041054600F07C
:105AD000BFFB2E4CA068401CA06020682C4F10B16A
