:020000040800F2
:10000000F84D002025030008874300083B40000806
:10001000854300081D2A0008554C00080000000018
:100020000000000000000000000000006502000861
:100030001F2A000800000000C1020008094800084B
:100040003F0300083F0300083F0300083F03000888
:100050003F0300083F0300083F0300083F03000878
:100060003F0300083F0300083F0300083F03000868
:100070003F0300083F0300083F0300083F03000858
:100080003F0300083F0300083F0300080000000092
:100090000000000000000000000000003F03000816
:1000A0003F030008C54800083F0300083F0300085D
:1000B0003F0300083F0300083F0300083F03000818
:1000C0003F0300083F0300083F0300083F03000808
:1000D0003F0300083F030008494C000800000000EF
:1000E0003F0300083F0300083F0300080000000032
:1000F0000000000000000000000000003F030008B6
:10010000000000003F0300083F0300083F03000811
:1001100000000000000000000000000000000000DF
:100120003F0300083F0300083F0300083F030008A7
:100130003F03000800000000000000000000000075
:100140000000000000000000000000003F03000865
:100150003F0300083F0300083F0300083F03000877
:100160003F0300083F0300080000000000000000FB
:10017000000000000000000000000000000000007F
:10018000000000003F030008000000000000000025
:100190003F03000800F002F800F055F80AA090E8CC
:1001A000000C82448344AAF10107DA4501D100F032
:1001B0004AF8AFF2090EBAE80F0013F0010F18BFAA
:1001C000FB1A43F0010318478C7A0000AC7A000058
:1001D000103A24BF78C878C1FAD8520724BF30C873
:1001E00030C144BF04680C60704700000023002445
:1001F00000250026103A28BF78C1FBD8520728BF37
:1002000030C148BF0B607047662907F045806429FC
:1002100000F05E81732900F05687002070471FB5FB
:1002200007F02DF801F036FA04000020002106F056
:10023000ADFD401C60600020002106F091FDE060F3
:100240001FBD10B510BD01F0EBFC1146FFF7E7FF35
:1002500004F038FF01F048FF03B4FFF7F2FF03BCDE
:1002600001F0A0FF2C4B19680868B0E8F04F80F34C
:100270000988BFF36F8F4FF0000080F3118870473B
:100280000000000008480068006880F308884FF00C
:10029000000080F3148862B661B6BFF34F8FBFF3DE
:1002A0006F8F00DF00BF00BF08ED00E0DFF80C003B
:1002B000016841F470010160704700BF88ED00E003
:1002C000EFF30980BFF36F8F134B1A681EF0100F06
:1002D00008BF20ED108A20E9F04F106009B44FF0FC
:1002E000500080F31188BFF34F8FBFF36F8F05F07D
:1002F000A3FF4FF0000080F3118809BC196808685B
:10030000B0E8F04F1EF0100F08BFB0EC108A80F379
:100310000988BFF36F8F704740000020EFF305801E
:10032000704700000948804709480047FEE7FEE79C
:10033000FEE7FEE7FEE7FEE7FEE7FEE7FEE7FEE795
:1003400004480549054A064B70470000B5480008B7
:1003500095010008F8470020F84D0020F8490020DA
:10036000F849002053EA020C00F069802DE9F04BB7
:100370004FF00006002B1FBFB3FA83F503FA05F414
:1003800024FA05F65E4012BF1643B2FA82F502FA6D
:1003900005F4C5F120051EBF22FA05FC44EA0C0451
:1003A000203556EA044C4FEA144418BF641C4FF041
:1003B00000084FF00009904271EB030C39D300297B
:1003C00019BFB1FA81F701FA07F6B0FA80F700FA1F
:1003D00007F6C7F120071EBF20FA07FC46EA0C0605
:1003E0002037B6FBF4FCA7EB0507103F07F01F0B07
:1003F000CBF120060CFA0BFB2CFA06F644BFB346F1
:100400000026202FA4BF5E464FF0000B5BEA060CCF
:1004100008BF4FF0010B19EB0B09ABFB027C48EB5B
:100420000608C01B06FB02CC0BFB03CC71EB0C01D6
:10043000C1E70B46024641464846BDE8F08B13B57E
:100440004FF000004FF00001AFF30080BDE81C400A
:10045000704700000FB41CB5074B06AA7B446946E1
:100460000090059800F005FE0020694600F014FE9B
:100470001CBC5DF814FB0000390C000070B50C4684
:100480000546012A05D02878800600D5EA690023B0
:1004900002E0012305E05B1C934202D2E05C0028ED
:1004A000F9D1A869E618C01AA861286A1844286218
:1004B0002846AFF3008004E0D5E9012114F8010BD0
:1004C0009047B442F8D32846AFF3008070BD0000D7
:1004D0002DE9F0410646002410687529314616A51D
:1004E00010D0AFF30080002802DA404213A507E0E5
:1004F00031688A0701D512A502E0490704D511A584
:10050000012401E0AFF3008000210A2206F1240754
:1005100009E0B0FBF2FCB0FBF2F302FB1C00303050
:1005200078541846491C0028F3D123462A46304601
:10053000BDE8F04100F030BB000000002D000000DD
:100540002B000000200000002DE9F0474FF0000ACA
:1005500089460446C0F820A02046E1688847002864
:1005600076D0252806D0D4E901219047206A401C86
:100570002062F1E7E168204600258847C4F81CA006
:1005800006460027C4F818A02A2E09D0304604F0E9
:10059000A2FC38B304EB8708303EC8F8186019E0B5
:1005A00059F8041B204604EB87029161E1688847F3
:1005B000012F064618D1E069002820DA25F0200531
:1005C0001DE0D8F8180000EB800006EB4000303842
:1005D000C8F818002046E1688847064604F07BFC0E
:1005E0000028EED1012F0AD02E2E08D12046E16836
:1005F00088477F1C0646022F45F02005C4DBA06912
:10060000002803DA404245F00105A061E80701D067
:1006100025F01005B6B1A6F14100192802D8203600
:1006200045F400654A463146204625604D46FFF7B1
:10063000EBFD58B1012806D0ED1D25F0070000F1B3
:10064000080989E704E005F1040985E730468AE7EF
:10065000206ABDE8F08700000FB400B58DB010A986
:10066000099000910B904FF0FF300A9000200C9001
:10067000064878440690064878446A4607900F99E1
:1006800009A800F0B5FF0DB05DF814FB9B0F00004A
:10069000B30F00002DE9FF5F1D464FF0FF3B914671
:1006A0004FF000085F46D5E90146A96901987F1C13
:1006B0008847296A824688470028F6D1BAF1FF3F69
:1006C0000CD0002E24F4C06419DD600614D5BAF1F4
:1006D0002B0F09D0BAF12D0F0ED103E0584604B00C
:1006E000BDE8F09F44F48064A96901987F1C8847A5
:1006F000761E8246002E02DDBAF1300F03D0B9F12A
:10070000000F26D032E0A969761E01987F1C44F4C0
:1007100000748847002E824605DDBAF1780F06D0B6
:10072000BAF1580F03D0B9F1000F10D01EE0B9F1A3
:10073000000F02D0B9F1100F18D1A969761E0198E7
:100740007F1C24F4007488478246102002E00820B1
:1007500000E00A20814609E0A96908FB0908761E25
:1007600001987F1C44F4007488478246002E05DD02
:100770004946504600F0ABFC0028EDDAE9690198E3
:100780008847A00502D46FF00100A8E7E00725D153
:10079000600613D5600502D5C8F1000000E04046B0
:1007A00029680A1D2A600968220501D5087015E02C
:1007B000220701D5088011E008600FE02868011DBC
:1007C00029600068210502D580F8008006E0210735
:1007D00002D5A0F8008001E0C0F8008038467EE72E
:1007E0002DE9FF5F4FF0000899461446464691698F
:1007F000D2E901A7DDF838B001988847054659EAE3
:100800000B0005D009E0A1690198761C88470546D0
:10081000216A284688470028F5D1681C03D05FEA82
:10082000CA7005D015E04FF0FF3004B0BDE8F09F6E
:100830002068011D2160D0F800800AE05FEACA70DC
:1008400001D108F8015BA169761C01987F1E8847D9
:100850000546002F1ADD681C18D0B9F1000F0DD025
:10086000E81705EBD060421120F01F0059F8221064
:100870002A1A012090400142E0D107E0BBF1000FAD
:10088000DCD12846216A88470028D7D0E169019841
:100890008847BBF1000F07D1002E05DD5FEACA7063
:1008A00002D1002188F80010A068B84203DDBBF136
:1008B000000F03D017B16FF00100B6E73046B4E780
:1008C000401ECAB210F8011F8A4202D00029F9D195
:1008D0000020704740EA0103024630B59B0710D163
:1008E0004FF0013400E008C208C91D1B9D4315EA02
:1008F000C41FF8D013F0FF0102F8011B0DD01B0A32
:10090000F8E711F8013B002B02F8013B05D011F884
:10091000013B002B02F8013BF3D130BD10B5431C65
:1009200002E010F8011B71B18107FAD14FF00132DA
:1009300002C88C1A8C4314EAC211F9D0C01A0A06F4
:1009400003D0C01E10BDC01A10BD0A0401D0801E05
:1009500010BD0902FCD0401E10BD40EA010370B575
:100960009B072ED14FF00136042A2AD308C810C99C
:100970009D1B9D43121F15EAC61517D0D8B2E1B2D0
:10098000401A50EA056110D198B2A1B2401A50EA5B
:1009900005410AD123F07F4024F07F41401A50EAFC
:1009A000052102D1180EA0EB146070BDA342DBD06C
:1009B00018BA21BA884201D9012070BD4FF0FF302A
:1009C00070BD0AB9002070BD10F8013B11F8014B51
:1009D00063B1A3420AD1521E08D010F8013B11F8AE
:1009E000014B1BB1A34201D1521EEDD1181B70BDAA
:1009F000032A40F2308010F0030C00F0158011F84B
:100A0000013BBCF1020F624498BF11F801CB00F822
:100A1000013B38BF11F8013BA2F1040298BF00F876
:100A200001CB38BF00F8013B11F0030300F0258033
:100A3000083AC0F0088051F8043B083A51F804CB5A
:100A4000A0E80810F5E7121D5CBF51F8043B40F820
:100A5000043BAFF30080D20724BF11F8013B11F82B
:100A600001CB48BF11F8012B24BF00F8013B00F86F
:100A700001CB48BF00F8012B704710B5203AC0F0F9
:100A80000B80B1E81850203AA0E81850B1E818508F
:100A9000A0E81850BFF4F5AF5FEA027C24BFB1E8CC
:100AA0001850A0E8185044BF18C918C0BDE810403D
:100AB0005FEA827C24BF51F8043B40F8043B08BF46
:100AC0007047D20728BF31F8023B48BF11F8012B0D
:100AD00028BF20F8023B48BF00F8012B704702F006
:100AE000FF0343EA032242EA024200F0B3BD4FF0A3
:100AF000000200B5134694469646203922BFA0E86E
:100B00000C50A0E80C50B1F12001BFF4F7AF090779
:100B100028BFA0E80C5048BF0CC05DF804EB89006A
:100B200028BF40F8042B08BF704748BF20F8022BAD
:100B300011F0804F18BF00F8012B704710B5044624
:100B400010F0030F08BF11F0030F40F015804FF0B5
:100B5000013E121FC0F20E8051F8043BA3EB0E0CB5
:100B60002CEA030C1CEACE1C08BF40F8043BF0D072
:100B7000A1F1040102F10402521E08DB11F8013B4D
:100B8000002B00F8013BF7D1114600F061FD204633
:100B900010BD7047704770472DE9F0470D469946E4
:100BA0009246044600F124080168880604D5E069ED
:100BB00021F01001216000E00120A84201DD471B67
:100BC00000E00027A1697A1902EB0900081AA06168
:100BD0002078C00602D42046AFF30080002608E04B
:100BE000D4E901211AF806009047206A401C761CBF
:100BF00020624E45F4DB2078C0060AD52046AFF3CC
:100C0000008006E0D4E9012130209047206A401C92
:100C10002062381EA7F10107F4DC07E0D4E90121C6
:100C200018F805009047206A401C2062281EA5F194
:100C30000105F3DC2046AFF300802078000602D5E2
:100C40000220BDE8F0870120FBE770472DE9FF4F48
:100C50000C461E464FF0FF378BB0D2E90001DDF89D
:100C600060800A908A46C1F30A5505B93D460021C5
:100C700008464FF00000BAF1000F00F4400005DA1A
:100C800000EB80004FF4400101EA50004FEA905918
:100C9000B9F1010F00DDB9460A9850EA4A000ED0BA
:100CA00044F61050A5F2FF3545432F14B8F1000F5C
:100CB0001ED07542291E1EDDC9F100021CE0B8F1EC
:100CC000010F4FF0000001D0302103E0F24305E0B6
:100CD0002154401CB042FBDB30460022002121544D
:100CE0000B99C1F80880C1E900200FB0BDE8F08F72
:100CF000BD1B6D1CDEE74A4600DA694206A800F01B
:100D000019FF06AB93E8070003AB83E807005046E2
:100D10000A9901F04EFA8DE80700A0F500501F383F
:100D200000900398002D0ADD42F21F014A46084454
:100D3000002303A90390684601F0FAFC09E0A0F53E
:100D400000504A461F38002303A90390684601F06B
:100D500019FD8DE807000004000C03D04FF0FF30B0
:100D6000410800E01046B8F1000F03D000220092C5
:100D700015461EE0751E05D400F094FC3032625515
:100D80006D1EF9D5B3460122084302D000227F1C14
:100D900004E02078302801D100227F1E002A099724
:100DA00084D01DE0112D07DA00F07CFC3032625552
:100DB0006D1C50EA0102F5D1084302D00098C8B179
:100DC0000EE00021681E05E0235C625C635422543F
:100DD000401E491C8142F7DBAB46A81B401E099010
:100DE000002004F80B000B98099AC0F80880C0E9AD
:100DF000002B7AE711264FF0000857E72DE9F04F56
:100E000088460446D21D22F0070191B0D1E90001C5
:100E1000CDE90A0103F01FFF02460B98C00F01D075
:100E20002D2007E02068810701D52B2002E020213A
:100E300001EAC000032A099001D0072A05DB034616
:100E40004146204600F07CFC0BE12078800601D56D
:100E5000E06900E00620B8F1650F814606D0B8F1E0
:100E6000660F18D0B8F1670F70D131E00020B9F1EA
:100E7000110F009001DB112301E009F101030AAA1F
:100E800001A90CA8FFF7E2FEDDE90C70002609F1CC
:100E90000105834647E001204B4600904FF0004794
:100EA0000AAA01A90CA8FFF7D1FEDDE90DB00C9943
:100EB0005D46002610B909F101000D18B9EB0500D7
:100EC00003D4C0F1FF3609F10105A5EB09002BE0C1
:100ED000B9F1010F01DA4FF001090020B9F1110F4A
:100EE0000090484601DD112300E003460AAA01A94B
:100EF0000CA8FFF7ABFEDDE90C704D4600268346DB
:100F0000207800070AD4AB4500DA5D4601A8012D20
:100F100004DD411911F8011C302907D04F4502DAD0
:100F200017F1040F04DA012082460FE06D1EEEE790
:100F3000002F02DCED1B3E4403E0781CA84200DDDC
:100F40007D1CB81B00F1010A4FF000472078000714
:100F500003D4AA4501DB4FF0FF3A0021B7F1004F5F
:100F60000DF143088DF8431024D002202B23002FCD
:100F700001DA7F422D230A21021EA0F1010000DCCC
:100F80005FB197FBF1FC97FBF1F201FB1C7C17466C
:100F90000CF1300C08F801CDEEE7A8F10100037068
:100FA0002188090501D5452100E06521A0F101084E
:100FB00000F8011C09980FA9A1EB0807FF1D00B15B
:100FC0000120411901EBEA70A1693844081A401E5A
:100FD000A0612078C00602D42046AFF300800998B3
:100FE00028B1D4E901219047206A401C2062207872
:100FF000C00622D52046AFF300801EE0002E04DBA1
:10100000B34502DD01A8805D00E03020D4E9012174
:101010009047206A401C2062761CAAF101005FEA1A
:10102000000A0AD100F036FBC0680168405CD4E9D0
:1010300001219047206A401C2062281EA5F101056D
:10104000DCDC07E0D4E9012118F8010B9047206AA5
:10105000401C2062381EA7F10107F3DC2046AFF3E5
:101060000080032011B041E601694A1C0261087842
:10107000704700B58FB0CDE90131002105910549D8
:101080007944CDE9031011466846FFF75DFA0FB0C9
:1010900000BD0000E5FFFFFF0A6802F8010B0A60CF
:1010A000704710B5436913B1AFF3008001E0FFF75B
:1010B000E5F9012010BD127800F124010A70002228
:1010C0004A700122EDE711684FF0FF32E9E73A2854
:1010D00000D2303820F02002412A01D3A2F137009B
:1010E000884201D34FF0FF30704700002DE9FF4FD9
:1010F00006468BB00878FF2806D0491C2D2805D05D
:1011000000244FF0000908E000200CE00124F8E77B
:1011100009EB8903491C00EB43090878FF28F7D144
:1011200014B1C9F100008146107800252C46AA466A
:1011300029462D2801D02B2804D1521C2D2813D04C
:10114000002082468B461078FF280FD04FF0000C0D
:101150000A21521CA5FB017804FB018105FB0C113F
:10116000C5194BEB0104EEE70120EAE70021084630
:101170004FF00000BAF1000F02D000EB80004008F1
:10118000C0F38157012F01DD4FF0FF370E9955EA6B
:10119000040009EB01080BD04FF0020918F5FA7FA3
:1011A00016DA4FEACA70002F706008DD012007E0F0
:1011B0004FEACA70C6E900B00FB0BDE8F08F00205A
:1011C000306000F06BFAC0F800901821084616E075
:1011D000B8F5FA7F18DD002F02DAF748784401E00D
:1011E000F6487844D0E90010C6E9001040EACA7019
:1011F000706000F053FAC0F80090142108460FB058
:10120000BDE8F04F06F045B8002108464FF0000059
:10121000B8F10001099002DAC7F1000200E03A4695
:1012200001DAC8F1000106A800F084FC06AB93E8DF
:10123000070003AB83E8070044F23E005BEA0401C9
:101240000090584604D144F21E012C465D460091A0
:10125000210C0904014306D10099240444EA1544F1
:101260002D041039009104F07F41014306D100990B
:10127000240244EA15642D020839009104F07041FB
:10128000014306D10099240144EA15742D01091F78
:10129000009104F04041014306D10099A40044EAC2
:1012A0009574AD00891E009104F00041084304D1FB
:1012B00000986D196441401E00904FF001033A46BA
:1012C0006846B8F1000FCDE9014503A902DD01F040
:1012D0006EFA01E001F041FABAF1000F04460D4642
:1012E00001D084F00044002108464FF00000099925
:1012F00040F2FF77484010F00C0F07D124F0004077
:10130000284303D0C4F30A50B84212D100F0C6F902
:10131000C0F80090C4F30A50B8420AD1A8487844F3
:10132000D0E90010C6E9001004F0004108437060E5
:1013300042E7C6E900543FE72DE9FF4F1F464FF053
:10134000000A4FF0FF38454691B0D7E90146CDF885
:101350003CA000F09FF9C0680168405C1090B9693A
:1013600012986D1C8847396A814688470028F6D153
:10137000B9F1FF3F0AD0002E24F4D06411DDB9F199
:101380002B0F08D0B9F12D0F0BD102E0404615B05C
:1013900013E744F48064B96912986D1C8847761E7F
:1013A0008146600504A901D52D2000E02B20002EE8
:1013B00001F1010B0DF130088DF810003FDDB9F19E
:1013C000690F08D0B9F1490F05D0B9F16E0F02D0FD
:1013D000B9F14E0F1CD13B4601A8009580E85002A0
:1013E000DDE912126FF0020005F0BCFFC11CCED186
:1013F0000EE0B96912986D1C884781461398761ED5
:1014000044F4007405600F98401C002E0F9016DD08
:10141000B9F1300FEDD0B9F1780F02D0B9F1580F12
:101420000DD10F9801280AD13B46CDE90054DDE9E2
:101430001212001F029605F093FFC11CA7D110994C
:1014400089453ED144F0800406E01399681CAAF156
:10145000010A44F400740860B9696D1C1298761E84
:10146000884730288146F0D02BE01099894505D176
:10147000200603D4761E44F0800418E0484603F0AA
:101480002AFD08B3761E0DF123018B4544F4007448
:1014900008D2A9F130000BF8010B200607D5AAF1FC
:1014A000010003E0200602D40AF101008246A005F3
:1014B00002D51399681C0860B96912986D1C884799
:1014C0008146002ED1DC53E0002E51DDB9F1650FCD
:1014D00002D0B9F1450F4BD1A00549D5B9696D1CB2
:1014E0001298761E24F440748847002E81460CDD45
:1014F0002B2804D0B9F12D0F07D144F48074B969B9
:1015000012986D1C8847761E8146E00501D52D2175
:1015100000E02B2108F8011BCDF8008021E0761EA9
:101520000DF13901884544F400740CD2A9F1300062
:1015300010F0FF0088F8000002D10099884509D911
:1015400008F1010806E0E00501D51E4801E042F27D
:101550000F708246B96912986D1C884781461398AE
:101560000560002E04DD484603F0B5FC0028D6D106
:10157000F96912988847FF2053468BF8000088F8D5
:10158000000000200A900B9004AA0CA90AA8FFF7FB
:10159000ADFDA00502D46FF00100F8E614F0240FB1
:1015A00012D0E0071CD13868DDE90A12031D3B6048
:1015B0000068C0E9001213E09C6A00008E6A000017
:1015C00052690000F1D8FFFF0AA9684603F070FCD9
:1015D000E00705D13868009A011D39600068026093
:1015E0002846D4E602681144137801601846704713
:1015F000D16005497944516104497944116200215F
:101600001161114600F0DCB8EDFFFFFF3101000071
:10161000426842B1016811F8013B23B1521EC0E992
:101620000012184670470121C160881E7047426849
:101630005AB1C368016843B983688B4205D0491E1B
:10164000521CC0E90012002070474FF0FF30704775
:101650004FF000020429C0F0128010F0030C3FF498
:1016600048AACCF1040CBCF1020F18BF00F8012B02
:10167000A8BF20F8022BA1EB0C01FFF73ABA5FEAF2
:10168000C17C24BF00F8012B00F8012B48BF00F8F3
:10169000012B704700487047B8470020004870474A
:1016A0009847002030B5B0F10A024FEA900E71F170
:1016B00000034EEA817EB0EB0E0061EB91014FEA30
:1016C000101E4EEA017E10EB0E0041EB11114FEAA5
:1016D000102E4EEA016E10EB0E0041EB11214FEA85
:1016E000104E4EEA014E10EB0E0041EB1141401836
:1016F00041F100014FEAD00040EA41704FEAD101C8
:1017000010EB80054FEA810444EA907444EB010435
:101710006D1944EB0404521BA3414FF0000348BF72
:101720000A3200D530BD401C41F1000130BD10B57A
:10173000044600F09BFA0068005D00F0010010BD57
:101740002DE9F0411F46044603260168072A01F4EB
:10175000006004DB08B116A505E016A503E008B19A
:1017600015A500E015A521F010002060A069C01E9D
:10177000A0610FB1401EA0612046AFF300804FB1C1
:10178000D4E9012138469047206A401C2062C01CE1
:10179000206206E0206AFAE7D4E9012115F8010B7E
:1017A0009047761EF8D22046AFF30080BDE8F08166
:1017B0004E414E006E616E00494E4600696E6600F5
:1017C0002DE9F34F4FF0000A0C4656468DB001202C
:1017D0000C9001F10C000B9062690B98012190476D
:1017E000051E2DD0252D2CD0216A8847C0B16269F5
:1017F0000B9801219047216A88470028F7D1626938
:10180000411E0B98904700E0761CA1690D9888470F
:10181000216A88470028F7D1E1690D988847DBE7FE
:10182000A1690D988847A842074601D1761CD3E7E5
:10183000E1690D9888477F1C02D1BAF1000F6FD083
:101840006BE162690B9800273D46394690472A288C
:1018500004D162690B98012190470125DFF8D082FD
:1018600062690B9801219047A0F130010A290AD240
:101870004745E5DC07EB870100EB4107303FDFD44C
:1018800045F01005ECE7E90601D46FF000476C283D
:101890000AD04C2814D0682815D06A280DD0742896
:1018A0001CD07A281AD01DE062690B98012190475C
:1018B0006C2802D045F0040514E045F002050DE067
:1018C00045F020050AE062690B98012190476828DD
:1018D00002D045F0080505E045F4006562690B9803
:1018E00001219047C4E9015765283DD019DC5828EB
:1018F0007AD00CDC452837D004DC252826D04128B6
:101900009ED131E046282FD0472899D12CE05B2882
:1019100077D0612828D063287CD0642823D15AE06E
:10192000F6E06F2848D008DC66281DD067281BD059
:10193000692821D06E2816D127E0702845D0732859
:1019400068D0752847D078280DD14DE0A1690D9851
:101950008847252805463FF469AFE1690D98884717
:101960006D1C3FF46AAFD8E00D9923466A466FF0CC
:10197000010005F0F3FCC5E045F0400023464FF0C0
:1019800000026060A80736D43EE0E8077FF447AF66
:101990002068011D21600068290501D506701BE73C
:1019A000290701D5068017E7A90703D5F117C0E974
:1019B000006111E706600FE745F0400023464FF055
:1019C00008026060A80716D41EE040F60E0125EA62
:1019D0000100606016E045F0400023464FF00A0227
:1019E0006060A80707D40FE045F040006060A807DA
:1019F00008D5234610220D996FF00100AFF3008047
:101A000080E007E0102223460D996FF00100FEF7F9
:101A100041FE77E04FF0000963284F46C8464B4629
:101A2000CB4602D05B2806D038E0E80601D401207E
:101A3000A060012732E06269D4F80CB00B98012154
:101A400090475E2807D14FF0010949466269D4F8F2
:101A50000CB00B989047216939B900210A4603ABB5
:101A600043F82120491C0829FADBD8B3216949B37E
:101A700008F1010862690B98012190475D28F4D1B3
:101A8000B9F1000F09D0002003A951F82020D2435A
:101A900041F82020401C0828F7DB03AB2069002810
:101AA00020794FEA40701ED05B462246CDF8008078
:101AB000CDE901970D9900286FF0010020DAAFF30E
:101AC00000801FE0C11703AA00EBD1614B1121F088
:101AD0001F0102EB8302411A13680120884003436F
:101AE0001360C7E719E00D99224600286FF0010046
:101AF000009702DAAFF3008004E0FEF771FE01E028
:101B0000AFF3008000280ADA401C06D10C9820B1FF
:101B10004FF0FF300FB0BDE8F08F5046FAE7E9070D
:101B200001D10AF1010A064400200C9054E600009D
:101B3000CCCCCC0C2DE9F047814616468AB035480E
:101B400078440DC88DE80D0032487844801C03AC01
:101B50000DC884E80D0041F69B300844372190FB06
:101B6000F1F290FBF1F5A5F1800501FB12041B3C9D
:101B700002D56442012000E00020DFF898A08046F2
:101B80000027FA44AAF1BE0A0EE0E0070AD0324666
:101B9000684607EB470101230AEB810100F0F2FDE3
:101BA0008DE8070064107F1C002CEED1194F7F4494
:101BB000AE3F19E0E80715D007EB04100DF1180A45
:101BC00090E80E008AE80E00C068F04201D1981932
:101BD00008903246012306A903A800F0D3FD03AB09
:101BE00083E807006D10641C002DE3D14FF0010362
:101BF00032466946B8F1000F03A802D000F098FD04
:101C000001E000F0BFFDC9E90001C9F808200AB0F1
:101C1000BDE8F087CC60000000487047984700207E
:101C20007546FFF7F9FFAE4605006946534620F0BA
:101C30000700854618B020B5FEF782FBBDE82040BE
:101C40004FF000064FF000074FF000084FF0000B78
:101C500021F00701AC46ACE8C009ACE8C009ACE82B
:101C6000C009ACE8C0098D467047000010B5FFF709
:101C700011FD001D10BD00BF1551000010B5FFF78C
:101C80000DFD006810BD10B50446FFF707FD0460A8
:101C900010BD00002DE9FF4F1F464FF03C0987B0F3
:101CA0004FF00042DDE9141001F10108DDF858A001
:101CB00002EA405003900020059083460546044602
:101CC0000490B969461E08988847AAF1010A029053
:101CD000BAF1000F3BDD02982E2815D01021FFF736
:101CE000F6F900282EDB4FF0010B0599014317D0C0
:101CF000B9F1000F0BDB4A46C11700F03FFA05436C
:101D00000C43A9F1040905E0012004900BE008B19F
:101D100045F0010501200590049820B9361D02E028
:101D2000049800B1361FB969089808F1010888477E
:101D3000BBF1000FAAF1010A0290C9D00999C1F8BC
:101D40000080C5E70298702808D0502806D0F969AD
:101D500008988847BBF1000F14D04FE00020029094
:101D60000120BBF1000F049009D0B969089808F16F
:101D700001088847AAF10109B9F1000F07DCF969E8
:101D8000089888476FF001000BB0BDE8F08F2B2852
:101D900004D02D280CD14FF0FF300490B969089879
:101DA00008F101088847A9F10109B9F1000FE6DD42
:101DB000411CE4D00A21FFF78AF90028DFDB0299F1
:101DC00008F1010801EB810100EB41000290B969C3
:101DD000089888470A21FFF77AF9099AA9F10109B9
:101DE000B9F1000FC2F8008001DD0028E7DAF969D7
:101DF000089888470499029800FB016655EA040098
:101E000004D004F04041090002D006E0039898E0B5
:101E1000A40044EA9574AD00B61E04F00041080029
:101E200002D16D196441761E159810F0240F03D06D
:101E30004FF00B095C4803E04FF028096FF07D007C
:101E40008246564507DAAAEB06018944B9F1410FEB
:101E500001DD4FF0410901200021A9F1010200F04C
:101E60008DF9024628400B462140084301D001214C
:101E700000E00021501E029143F1FF312840214033
:101E8000084301D0012000E000200299834651EA76
:101E90000B014FD0002108464FF00000039900F4D9
:101EA000400039B100EB80004FF4400100EBD070EE
:101EB00001EA60008015012802DD4FF0FF3000E0EC
:101EC00013D0401C36D0029860B3BBF1000F0CD188
:101ED0004A460120002100F051F9284021400843E2
:101EE00001D0012000E00020E0B101204A4600219D
:101EF00000F044F9034640190A4661412D1A8C410D
:101F000011D3B9F1400F09DD159810F0240F02D05C
:101F1000AAF1340603E0AAF1170600E0761C0025BA
:101F20004FF0004406E05B1E42F1FF3220EA030559
:101F300021EA0204CAF10100B04206DA1B49039803
:101F400008430190002000900EE0039AC4F3D321CF
:101F5000E80A0A43164940EA44500A433146CDE9AB
:101F60000002684602F0ADFF159810F0240F0BD068
:101F70001598C00715D13868DDE90012031D3B60D4
:101F80000068C0E900120CE002A8694602F090FF68
:101F90001598C00705D13868029A011D396000689C
:101FA00002604046F0E6000002FCFFFF0000F07F08
:101FB0000000F03F2DE9FF4F92461D4685B04FF0DF
:101FC0000041DDE9124BDDE914727F1E01EA4B503E
:101FD000414940F0FF4940EA0108002122F0200079
:101FE0004928049102D04E2828D04CE03BA001267D
:101FF00007C88DE80700A9690698641C88477F1EFA
:10200000014606D41DF8060018B121F020018142D6
:102010000BD0E96906988847032E34D0082E32D0B9
:102020006FF0010009B0BDE8F08F761C032E01D0DF
:10203000082EE0D1601CCAF80000DCE7A969069808
:10204000641C88477F1E2AD420F02000412826D116
:10205000A9690698641C88477F1E20D420F02000C0
:102060004E281CD1A9690698641C88477F1E48F435
:10207000002849F48009CAF8004001D4282806D075
:10208000E969069888475FEACB7012D022E0A96917
:102090000698641C88477F1E01D4002803DAE9698A
:1020A00006988847BCE72928F1D1641CCAF800408B
:1020B000E9E71BF0240F07D028680499031D2B6063
:1020C0000068C0E9001805E02868021D2A60006861
:1020D000C0F800902046A5E70000F07F494E464931
:1020E0004E4954590000000010B50446AFF300807B
:1020F0002046BDE81040FEF7AFB800004FF0013CAD
:1021000050F8042B51F8043B9A4221D1A2EB0C0366
:10211000934313EACC1317D150F8042B51F8043B26
:102120009A4215D1A2EB0C03934313EACC130BD1C3
:1021300050F8042B51F8043B9A4209D1A2EB0C034E
:10214000934313EACC13DBD04FF00000704700BF7D
:10215000D01A01BAB1FA81F101F0180122FA01F0A6
:10216000CB40C1F12001DBB2C0B2C01A2CFA01F39E
:10217000D11A914311EAC311E6D17047B2F120039D
:102180000AD5C2F1200301FA02F120FA03F300FAA2
:1021900002F041EA0301704700FA03F14FF000003A
:1021A0007047000001491820ABBEFEE72600020080
:1021B00070475FEA400C08BF91F0000F4FEA8C2394
:1021C0004FEAC12243EA51514FEA1C5018BF00F5B3
:1021D000F0404FEA300018BF41F000415FEA6C5C0C
:1021E00000F02980BCF1FF3F08BF40F080407047FD
:1021F000130C06BF12044FF0100C4FF0000C130E1E
:1022000004BF12020CF1080C130F04BF12010CF1F1
:10221000040C930F04BF92000CF1020CD30F04BF07
:1022200052000CF1010C11464FF00002A0F11F000A
:10223000A0EB0C00704711F0004F08BF704731F061
:1022400000413FF4D5AF0B0C06BF09044FF0100C52
:102250004FF0000C0B0E04BF09020CF1080C0B0F21
:1022600004BF09010CF1040C8B0F04BF89000CF1B1
:10227000020CCB0F04BF49000CF1010CCCF1200380
:10228000A0EB0C0022FA03F302FA0CF241EA03017C
:1022900000F10100704720F07F4C80EA030023F03A
:1022A0007F47ACEB070303F57C5300F0004003F1DC
:1022B000FF032DE980494FEA154B09B44FEA144357
:1022C00025EA0B4E24EA03480FF2042606EB1327F7
:1022D00049083E785FEA320203FB0667C7F500074C
:1022E00007FB06F64FEA54374FEAD64606F10206D8
:1022F00007FB066CCCF1005C4FEA1C472CEA074C4C
:1023000007FB06F40CFB06F504EB15464FEA9616A0
:1023100034BF00204FF000404FEAD13706FB07FCE6
:102320004FEA1C4C0CFB0BF7D21B03FB0CF761EBC9
:1023300007010CFB0EF7B0EB074072EB17420CFBEA
:1023400008F734BFA2EB0742B2EB074261EB17413B
:102350004FEA0C444FEA910706FB07FC4FEA1C4C7E
:102360000CFB0BF7B0EBC74072EB573203FB0CF7DB
:1023700034BFA2EBC742B2EBC74261EB57310CFB53
:102380000EF7B0EBC70072EB57720CFB08F734BFC7
:10239000A2EBC702B2EBC70261EB5771039F4FEA92
:1023A000816141EA921104EBCC044FEAD1374FEA44
:1023B000826206FB07FC42EA90124FEA80604FEA15
:1023C0001C4C0CFB0BF7D21B03FB0CF761EB07015A
:1023D0000CFB0EF7B0EB074072EB17420CFB08F753
:1023E00034BFA2EB0742B2EB074261EB17414FEA61
:1023F0008C554FEA910704EB9C2406FB07FC4FEA3F
:102400001C4C0CFB0BF7B0EBC74072EB573203FBD5
:102410000CF734BFA2EBC742B2EBC74261EB5731B6
:102420000CFB0EF7B0EBC70072EB57720CFB08F712
:1024300034BFA2EBC702B2EBC70261EB577115EBD9
:102440004C254FEA816141EA92114FEA82624FEADC
:10245000D13742EA901206FB07FC44F100044FEA30
:1024600080604FEA1C4C0CFB0BF7D21B03FB0CF7F4
:1024700061EB07010CFB0EF7B0EB074072EB174264
:102480000CFB08F734BFA2EB0742B2EB074261EB4B
:10249000174115EB1C154FEA813141EA92414FEA91
:1024A000823242EA90424FEA80304FEA0C7644F1A1
:1024B000000448EA03434EEA0B484FF0000EB2EB2B
:1024C000080C71EB030724BF624639464EEB0E0E33
:1024D0004FF0000B0018524149414BEB0B0BB2EB94
:1024E000080C71EB03077BF1000B24BF62463946F1
:1024F0004EEB0E0E4FF0000B0018524149414BEBD2
:102500000B0BB2EB080C71EB03077BF1000B24BF44
:10251000624639464EEB0E0E51EA020718BF46F0EE
:10252000010616EB0E7655F1000254F1000103D5B9
:10253000BDE88901BDE80088BDE88901BDE8004823
:10254000B619524141EB0101A3F1010370478080AC
:102550007F7E7D7C7B7A79787776767574737271FD
:1025600071706F6E6E6D6C6C6B6A6A6968686766B5
:1025700066656464636362616160605F5F5E5E5D47
:102580005D5C5C5B5B5A5A595958585757565655BB
:1025900055555454535352525251515050504F4F1D
:1025A0004F4E4E4D4D4D4C4C4C4B4B4B4A4A4A496D
:1025B00049494848484747474746464645454544B0
:1025C0004444444343434342424242414141000068
:1025D00046EA0646A3F570534FEA164646EA4256C7
:1025E0004FEAD22242EA415210B54FEAD121A3F17B
:1025F000010300F02FF820F0004000F1020C00F081
:10260000004701EB00501146BCF5006F40EA07009F
:1026100000D210BDBAF1000F0AD01CB503B44FF0C0
:1026200004004FF004014FF000000FBCBDE8104063
:102630004FF00001BBF1010FB9BF04484FF0FF316B
:102640000348002140EA070010BD00BFFFFFEF7FF5
:102650000000F07F002B9C4630D477002BD01CB5B7
:102660004FEA370703B44FF010004FF01001BAF1F2
:10267000000F06D0BCF1000FDCBF40F0080040F0B6
:1026800008014FF000000FBCBDE810400BF1010B3A
:10269000BBF1010F08BF5FEA170722BF12F1010269
:1026A00011F101014FF0004143F1000300F000403F
:1026B00043EA00007047F9D35708D0E746EA0646D8
:1026C00013F1400F4FEA16461FDD13F1200FDFBF55
:1026D00016430A46002120335B42BED0C3F12007D7
:1026E00046EA064602FA07F74FEA164646EA0706A2
:1026F000C3F1200722FA03F201FA07F721FA03F1E6
:102700004FF0000342EA0702A7E746EA020646EA5C
:1027100006464FEA164646EA0106BCBF46EA0646AA
:10272000360C4FF000034FF000024FF0000194E729
:102730002DE9804C9A46934670B491E8380007C85A
:1027400031EA400C48BF34EA430C03D5FFF7A3FD40
:10275000FFF780FFF0BCBDE8008C2DE9804C9A4665
:10276000934670B491E8380007C831EA400C48BF7E
:1027700034EA430C03D5FFF78EFDFFF729FFF0BCC9
:10278000BDE8008C2DE9804C9A46934670B491E8E0
:10279000380007C810F0804F08BF13F0804F03D1F6
:1027A00000F01AF8FFF756FFF0BCBDE8008C2DE9E9
:1027B000804C9A46934670B491E8380007C810F0F0
:1027C000804F08BF13F0804F03D100F005F8FFF7EA
:1027D000FFFEF0BCBDE8008C20F07F4780EA0300DC
:1027E00023F07F4C07EB0C03A3F57C5300F0004073
:1027F000A3F1FE0392F0000F00F0B38095F0000FFC
:1028000000F077802DE901494FEA11404FEA144664
:1028100021EA004800FB06FC24EA064708FB06F60E
:1028200007FB08F800FB07F718EB06484CEB164CC3
:102830004FEA124B18EB07484FEA15464CEB17408E
:1028400022EA0B4E0BFB06FC25EA06470EFB06F6BA
:1028500007FB0EFE0BFB07F71EEB064E4CEB164C70
:102860004FF000061EEB074E4CEB174B18EB0B0816
:1028700040F1000018EB0E0B58EB000840F100008F
:102880008F1A4FF000013CBFC943661B14BFB5EB64
:10289000040C00213CBFC943F61B4FEA17444EEA23
:1028A0008E0E27EA04454FEA1C4704FB07622CEA18
:1028B000074C05FB07F70CFB05F604FB0CFC16EBBD
:1028C000074642EB174216EB0C4642EB1C421BEB51
:1028D000060658EB0202414146EA9E0601D5BDE8D4
:1028E0000189B619524141EB0101A3F10103BDE891
:1028F00001894FEA14454FEA114724EA054621EAC7
:10290000074C05FB07F406FB07F70CFB06F105FB7C
:102910000CFC11EB074144EB17444FEA124711EB53
:102920000C4144EB1C4422EA074C05FB07F206FB72
:1029300007F70CFB06F605FB0CFC16EB074642EB13
:10294000174216EB0C4642EB1C456A1854F1000185
:1029500048BF7047B619524141EB0101A3F1010391
:10296000704795F0000F37D04FEA11424FEA1447F5
:1029700021EA024624EA074C02FB07F106FB07F7AF
:102980000CFB06F402FB0CFC14EB074441EB174173
:102990004FEA154714EB0C4441EB1C4125EA074C68
:1029A00002FB07F506FB07F70CFB06F602FB0CFC27
:1029B00016EB074645EB174516EB0C4645EB1C425C
:1029C000121951F1000148BF7047B619524141EB4D
:1029D0000101A3F1010370474FEA14454FEA114783
:1029E00024EA054621EA074C05FB07F106FB07F739
:1029F0000CFB06F24FF0000605FB0CFC12EB074245
:102A000041EB174112EB0C4251EB1C4148BF7047A0
:102A1000921841EB0101A3F101037047FEE77047F3
:102A20002DE9F0410446876D00F054F9064694F80C
:102A300035000025022806D08020606584F83450D7
:102A40000120BDE8F0812068016821F016010160D5
:102A50002068416921F080014161206C08B9A06CB7
:102A600020B12068016821F0080101602068016838
:102A700021F0010101600CE000F02CF9801B052819
:102A800007D920206065032084F8350084F834508D
:102A9000D7E720680068C007EED194F85C103F20AB
:102AA0008840B860012084F8350084F83450002054
:102AB000C7E790F83510022903D080214165012035
:102AC0007047052180F835100068016821F0010188
:102AD00001600020704700002DE9F84FDFF8B8A131
:102AE0000022012403254FF00F090AF1040BAAF17B
:102AF000040E00BF0B6804FA02F63340B34273D1F0
:102B00000F7907F00307012F01D0022F16D1876834
:102B10004FEA420805FA08FC27EA0C07D1F80CC076
:102B20000CFA08FC4CEA070CC0F808C04768B74329
:102B30000E79C6F3001696403E4346600E79F64382
:102B4000B6070DD0C768560005FA06FC27EA0C0741
:102B5000D1F808C00CFA06FC4CEA070CC0F80CC00F
:102B60000E7906F00306022E10D1D60800EB860877
:102B7000D8F8206057074FEAD76C09FA0CF7BE4324
:102B80000F6907FA0CF73743C8F8207006684FEA58
:102B9000420C05FA0CF7BE430F7907F0030707FA5A
:102BA0000CF7374307604E6816F4403F6DD03B4E3C
:102BB000376847F480473760366822F0030706F429
:102BC00080460096364E07EB060CDCF8086897073F
:102BD0003F0F09FA07F826EA0806DFF8C8804045E3
:102BE00003D14FF000081EE04FE0DFF8BC80404505
:102BF00002D14FF0010816E0DFF8B080404502D165
:102C00004FF002080FE0DFF8A880404502D14FF0F6
:102C1000030808E0DFF89C80404502D14FF004082B
:102C200001E04FF0070808FA07F848EA0608CCF870
:102C30000888DAF800605746D1F804C09E435FEA7E
:102C4000CC2C00D51E433E60DBF800605F46D1F817
:102C500004C09E435FEA8C2C00D51E433E60DEF824
:102C600000607746D1F804C09E435FEA8C3C00D5F3
:102C70001E433E60084F083F3E68D1F804C09E43A3
:102C80005FEACC3C00D51E433E60521C102AFFF484
:102C900031AFBDE8F88F0000083C014044380240E5
:102CA00000300140000002400004024000080240E1
:102CB000000C024000100240426921EA02030A406F
:102CC00043EA0241816170470AB18161704709049A
:102CD000FBE70000014880687047000030000020DA
:102CE00070B5040025D094F83D00002520B984F883
:102CF0003C50204600F004FA242084F83D0020686F
:102D0000016821F0010101602068016841F400417F
:102D100001602068016821F40041016000F0A2FB1D
:102D20004D4A6168914201D84C4900E04C498842C3
:102D300001D2012070BD4B492368B0FBF1F15E6800
:102D400026F03F060E435E606368934206D94FF457
:102D5000967359434FF47A73B1FBF3F12368491C1E
:102D60001E6A26F03F06314319626168914210D80D
:102D70004900401EB0FBF1F2521CC2F30B02042AC0
:102D800001D2042022E0B0FBF1F0401CC0F30B00A4
:102D90001CE0A268F2B301EBC10303EB0116431E72
:102DA000B3FBF6F35B1C43F480431B0549D092B39D
:102DB00001EBC10202EB0111401EB0FBF1F0401C1F
:102DC000C0F30B0040F4804040F400402168CA6921
:102DD0004CF6FF739A431043C861D4E907100143CE
:102DE0002068026822F0C00211430160D4E90301A7
:102DF00001432068826848F2FF339A43114381609F
:102E0000D4E9050108432168CA6822F0FF02104393
:102E1000C86001E00EE016E02068016841F00101A1
:102E200001602564202084F83D00256384F83E502D
:102E3000002070BD01EB4106431EB3FBF6F35B1CA3
:102E4000B3E70120C2E701EB4101401EB0FBF1F006
:102E5000401CC0F30B00B7E7A086010080841E0071
:102E600000093D0040420F002DE9FF4F81B0894627
:102E70000446FFF72FFF054694F83D004FF0000889
:102E800020287DD11923012250492046009501F0C8
:102E900067F9002874D194F83C00012870D0012013
:102EA00084F83C0020680168C90703D1016841F03B
:102EB000010101602068016821F4006101602420A3
:102EC00084F83D00002626644148E0624FF0011B73
:102ED00020272068016841F480710160009500227C
:102EE00059462046049B01F03BF950B12068006828
:102EF000C00502D54FF400702064032005B0BDE882
:102F0000F08F216809F0FE000861FFF7E3FE2168F9
:102F1000054648694969C0F34000C1F380214FF07C
:102F2000A00A0FE0FFF7D6FE411B0498814200D8AB
:102F300008B984F83DA0216848694969C0F3400098
:102F4000C1F3802194F83D20A02A02D008B90029BD
:102F5000E8D084F83D7020684169C943890716D4D8
:102F6000016841F40071016020684169806919239A
:102F7000012216492046009501F0F2F8B8B900E0A8
:102F800021E084F83D7084F83C600020B6E70168D9
:102F900041F40071016021686FF480604861192379
:102FA00001220A492046009501F0DAF808B1012013
:102FB000A4E7039808F1010880458AD384F83D709E
:102FC00084F83C60F3E7022098E70000020010005C
:102FD0000000FFFF2DE9F84F1F4690468A46044641
:102FE000DDF82890FFF776FE054694F83D0020288E
:102FF0007FD11923012240492046009501F0B0F805
:10300000002876D194F83C00012872D0012084F881
:103010003C0020680168C90703D1016841F0010143
:1030200001602068016821F400610160212084F8BA
:103030003D00102084F83E0000262664C4F8248059
:103040006785608D20852D48E0622B464A465146B3
:10305000204601F00BF890B9206841698069009022
:1030600036E02A464946204601F020F950B1206C4E
:10307000042804D12068016841F400710160012036
:10308000BDE8F88F606A216800780861606A401CBA
:103090006062618D491E6185218D491E89B221853D
:1030A00022685369DB435B070BD451B10078106190
:1030B000606A401C6062608D401E6085208D401EED
:1030C00020852A464946204601F01EF80028CED128
:1030D000208D0028C5D154F83D0B016841F40071E2
:1030E0000160202004F81E09E67766770020C7E714
:1030F000FFE70220C4E70000020010000000FFFF0D
:1031000010B586B0044614216846FDF7F0FC13495B
:103110002068884220D112480021026842F0020251
:103120000260006800F002000590C02000901220AC
:10313000CDE9010103200390042004906946094869
:10314000FFF7CAFC06481030016841F40011016025
:10315000006800F40010059006B010BD0054004057
:10316000303802400004024002488168027811446D
:1031700081607047300000200B4810B5016841F4B1
:1031800000710160016841F480610160016841F4EF
:1031900080710160032000F099F80F2000F006F81C
:1031A00000F04AF8002010BD003C024030B5054652
:1031B0001C4887B00024016841F0010101600068EB
:1031C00006A900F00100009001A800F02BF900F022
:1031D00059F91549154AB0FBF1F11548491E02602D
:1031E00040F2E732C0E90324C0E90114846100F031
:1031F00043FB040012D10E4800F06CFB04000DD11B
:10320000192000F035F8102D07D200222946192088
:1032100000F03CF80748056000E0012407B02046B4
:1032200030BD00004438024040420F000000014021
:10323000600A0020340000200C4882B0016841F48C
:1032400080410160006800F4804000900748001F42
:10325000016841F0805101600068002200F0805058
:1032600000900F21901E02B000F010B844380240C8
:10327000002809DB00F01F02012191404009800075
:1032800000F1E020C0F8001170470000F0B40E4BD0
:103290001B680C46C3F30223C3F10705042D00D9B4
:1032A0000425191D072901D2002300E0DB1E012699
:1032B00006FA05F1491E214099409E40761E1640AF
:1032C0003143F0BC01F0DFBC0CED00E0064900F03A
:1032D000070208684FF6FF03184040EA0220034A3D
:1032E00010430860704700000CED00E00000FA0594
:1032F0002DE9F0470E46050065D0DFF81481D8F8B7
:103300000000F7B200F00700B04207D288F8007062
:10331000D8F8000000F00700B04254D128683D4CB6
:10332000810712D5400703D5206840F4E0502060A3
:103330002878000703D5206840F4604020602068AA
:10334000A96820F0F000084320602878C0072DD03D
:10335000304968680839012812D0022813D00328A0
:1033600011D00968890700292DDA216821F00301AD
:1033700001432160FFF7AEFC814641F2883A0EE03E
:1033800009688903EFE709688901ECE7FFF7A2FC08
:10339000A0EB0901514502D90320BDE8F087206860
:1033A000696800F00C00B0EB810FEFD1D8F8001085
:1033B000404601F00701B14207D90770006800F0EC
:1033C0000700B04201D00120E7E72878400705D583
:1033D0002068E96820F4E05008432060287800075E
:1033E00006D52068296920F4604040EAC1002060C9
:1033F00000F058F82168084AC1F30311515CC84035
:103400000649086006480068FFF7D0FE0020C4E7C0
:10341000003C0240083802407C7B00083C00002051
:10342000340000200F2202600C4A136803F00303EB
:103430004360136803F0F0038360136803F4E05300
:10344000C36012684FF4E05303EAD20202610448F9
:10345000006800F00700086070470000083802406C
:10346000003C02400448054900680968044AC1F369
:103470008221515CC84070473C000020083802405F
:103480008C7B00080448054900680968044AC1F3B8
:103490004231515CC84070473C000020083802406F
:1034A0008C7B0008154810B5006810F00C02144819
:1034B00013D01449042A0FD0082A0ED10F4C241F10
:1034C0002268236802F03F025B0207D52068C0F340
:1034D0008810A0FB010106E0084610BD2168C1F379
:1034E0008811A1FB00010023FCF73CFF2168C1F318
:1034F0000141491C4900B0FBF1F010BD0838024001
:103500000024F40040787D012DE9F84F04006ED0CE
:103510002078DFF84C93C007A9F104054AD009F1DF
:1035200004000168C1F38101012908D00068C0F3DB
:10353000810002280AD1D9F80000400206D5286887
:10354000800337D560680028E1D033E06068B0F5CB
:10355000803F10D0B0F5A02F286810D020F4803024
:103560002860286820F4802028606068A8B1FFF7F0
:10357000B1FB06460DE0286840F48030F4E740F4E3
:1035800080202860F7E700BFFFF7A4FB801B6428BA
:1035900073D828688003F7D50CE0FFF79BFB06463D
:1035A00005E000BFFFF796FB801B6428F0D8286871
:1035B0008003F7D42078DFF8AC8280074FF0000A50
:1035C0003ED5A748001D016811F00C0F08D0006817
:1035D000C0F3810002280BD1D9F80000400207D4C3
:1035E0002868800716D5E068012800D112E033E191
:1035F000E068B8B10120C8F80000FFF76BFB064691
:1036000005E000BFFFF766FB801B0228C0D82868D2
:103610008007F7D52868216920F0F80040EAC1004A
:1036200028600DE0C8F800A0FFF754FB064604E050
:10363000FFF750FB801B02281FD828688007F7D4AB
:103640002078000722D5864F87486169703771B1AD
:1036500001210160FFF73EFB064604E0FFF73AFB5D
:10366000801B022809D838688007F7D50EE0C0F81B
:1036700000A0FFF72FFB064605E082E0FFF72AFBDC
:10368000801B02287DD838688007F7D4207840074F
:1036900068D5DFF8CCB100270BF13C0BDBF800005C
:1036A000C0000BD4DBF8001041F08051CBF80010C3
:1036B000DBF80000012700F0805000906B4E30686E
:1036C000C00510D4306840F480703060FFF702FB12
:1036D000009005E0FFF7FEFA0099401A022850D842
:1036E0003068C005F6D55E4EA0686C3601280FD054
:1036F0000528306810D020F001003060306820F0DC
:1037000004003060A068B8B1FFF7E4FA00900FE061
:10371000306840F00100F4E740F004003060F7E763
:10372000FFF7D8FA0099411A41F28830814266D8F1
:1037300030688007F4D50EE0FFF7CCFA009007E080
:10374000FFF7C8FA0099411A41F28830814256D8F1
:1037500030688007F4D42FB1DBF8001021F08051DD
:10376000CBF80010A069C8B33D49091D0968C1F331
:10377000810102294AD00228504607D0C8F86000CB
:1037800000E03CE0FFF7A6FA04463BE04746C8F8F5
:103790006000FFF79FFA064605E000BFFFF79AFAC0
:1037A000801B02282BD828688001F7D4D4E90701B0
:1037B0000843A16A2E4A490802EB0141626A41EAC4
:1037C0008211084394F82C1040EA0161C9F80010F6
:1037D00001203866FFF77EFA044606E03EE000BFAF
:1037E000FFF778FA001B022809D828688001F7D56E
:1037F00034E000BFFFF76EFA001B022802D9032055
:10380000BDE8F88F28688001F4D427E00128F7D0BC
:10381000D9F80000E26900F4800191421CD1226ACB
:1038200000F03F01914217D147F6C071626A014032
:10383000B1EB821F10D1A26A4FF0FF3300F4403188
:1038400003EB5202B1EB024F06D194F82C1000F0BA
:103850007060B0EB016F01D00120D1E70020CFE70D
:103860000438024000004742800E4742007000408A
:103870000000FFFF7047704710B5040003D094F8B4
:103880003D0010B107E0012010BD002084F83C008D
:10389000204600F01EF8022084F83D00211D20681B
:1038A00001F016F8012084F8460084F83E0084F800
:1038B0003F0084F8400084F8410084F8420084F816
:1038C000430084F8440084F8450084F83D0000205B
:1038D00010BD704790F83D10012901D001207047BC
:1038E000022180F83D100168CA6842F00102CA60F6
:1038F00000680E4988420ED0B0F1804F0BD00C49C1
:10390000884208D00B49884205D00B49884202D032
:103910000A49884204D1816801F00701062903D0D1
:10392000016841F001010160002070470000014082
:103930000004004000080040000C0040004001402E
:1039400070472DE9F04104460068C66805694FF0EC
:103950000007A90713D5B10711D5F91E0161012090
:103960002077206880698007204602D0FFF7E8FFB3
:1039700004E000F07EF8204600F07CF82777680726
:1039800016D5700714D521686FF004000861022075
:1039900020772068806910F4407F204602D0FFF72E
:1039A000CFFF04E000F065F8204600F063F82777C9
:1039B000280715D5300713D521686FF00800086176
:1039C000042020772068C0698007204602D0FFF7D6
:1039D000B7FF04E000F04DF8204600F04BF82777E1
:1039E000E80616D5F00614D521686FF010000861BE
:1039F000082020772068C06910F4407F204602D05C
:103A0000FFF79EFF04E000F034F8204600F032F8A3
:103A10002777E80708D0F00706D021686FF001008B
:103A20000861204600F028F8280608D5300606D59B
:103A300021686FF0800008612046FFF71BFF6806D1
:103A400008D5700606D521686FF040000861204651
:103A500000F01CF8A8060AD5B00608D521686FF05A
:103A6000200008612046BDE8F041FFF704BFBDE833
:103A7000F08170477047000000680349884201D117
:103A8000FFF772BB704700000000014070477047AD
:103A900070470000F8B5016804460868CA684B69B9
:103AA00010F00F0F4FF0000559D003F0010602F49B
:103AB0009077374365D0C10705D0D10503D5616C38
:103AC00041F001016164410705D5D90703D0616C5C
:103AD00041F002016164810705D5D90703D0616C0B
:103AE00041F004016164010707D502F02001314370
:103AF00003D0616C41F008016164616C00293AD027
:103B0000800604D5900602D5204600F062FF2068AA
:103B10004069616CC0F38010090700D460B320468F
:103B200000F030FF20684069400621D5206814303D
:103B300050E8001F21F0400140E80012002AF5D1B2
:103B4000E06BA8B16E490165E06BFEF7B2FF00289B
:103B500011D0E06B016D01B0BDE8F040084783066D
:103B60000FD593060DD52046BDE8F84000F031BFD3
:103B70002046FFF78DFFF8BD2046FFF789FF6564FB
:103B8000F8BD266B2023012E7DD1C6067BD5D60637
:103B900079D508684868009048694FF002064006E9
:103BA00041D5E16B086840680004000CE8D0A28DA4
:103BB0008242E5D9E085C869B0F5807F2DD02068C4
:103BC0000C3050E8001F21F4807140E80012002AF8
:103BD000F5D12068143050E8001F21F0010140E8C1
:103BE0000012002AF5D12068143050E8001F21F09F
:103BF000400140E80012002AF5D184F842302563E4
:103C000020680C3050E8001F21F0100140E800123D
:103C1000002AF5D1E06BFEF703FF6663A08DE18D0E
:103C2000401A81B22AE0A08DE18D401A81B2E08D68
:103C30000028A5D00029A3D022680C3252E8000F3A
:103C400020F4907042E80007002FF5D1206814306E
:103C500050E8002F22F0010240E80027002FF5D1A4
:103C600084F84230256320680C3050E8002F22F0A1
:103C7000100240E80023002BF5D166632046FFF7D1
:103C800006FFF8BDFFE705062BD5150629D594F8E4
:103C900041002128F5D1A068B0F5805F01D12069ED
:103CA000B0B1206A411C2162216800784860E08C34
:103CB000401E0004000CE084E3D12068C16821F0BC
:103CC0008001C1602068C16841F04001C160D8E74F
:103CD000206A0088C0F308004860206A801C2062C7
:103CE000E5E74006CDD55006CBD5CA68204622F080
:103CF0004002CA6084F8413000F09EF9C1E700003C
:103D00007549000870B5040004D094F841000025FE
:103D100010B106E0012070BD84F84050204600F04C
:103D200023F8242084F841002068C16821F4005160
:103D3000C160204600F0AEFE2068016921F4904188
:103D400001612068416921F02A0141612068C16850
:103D500041F40051C1606564202084F8410084F87A
:103D600042006563002070BDF0B587B004461421A1
:103D70006846FCF7BCFE274F236800222649022430
:103D8000032507262548BB421CD1234B14331F684B
:103D900047F010071F601B6803F0100305930B68C2
:103DA00043F001030B60096802AB01F001010591CA
:103DB0006902CDE9001483E864006946FEF78CFED1
:103DC00007B0F0BD164FBB42FAD1134B10331F683A
:103DD00047F400371F601B6803F4003305930B683A
:103DE00043F001030B60096802AB01F0010105918A
:103DF0000C21CDE9001483E864006946FEF76CFEEF
:103E0000002205212620FFF741FA2620FFF730FA8D
:103E1000D6E70000001001403038024000000240A8
:103E2000004400402DE9F84F044690F842009A46BD
:103E300016460D46202802D00220BDE8F88FB5B105
:103E4000AEB100206064222184F842102063FEF7A6
:103E500041FFA6858146E685A0684FF4805820275B
:103E6000404501D1206920B12E46002529E00120DE
:103E7000E3E7002625E04B46002220212046CDF82E
:103E800000A000F0A8FE18B184F842700320D4E727
:103E900026B1A06840451AD038B108E020684068D3
:103EA000C0F3080025F8020B08E0206978B120680B
:103EB000406800F07F0000BF06F8010BE08D401E57
:103EC000E085E08D0028D6D184F84270B5E72068FF
:103ED0004068F1E790F84230202B01D00220704773
:103EE00021B11AB10023036300F05ABE01207047CC
:103EF00038B500682249884241D141142148FEF773
:103F0000DBFE214C002520787F282BD2A2781F4988
:103F10000A2A03D00A54401C207028E00D541B4884
:103F200000F0E0FF194801F0A7F8D8B117497F2247
:103F300001F18000FCF702FE1448803080F87F50C9
:103F400001206070A06868B16946009501F0D8FF53
:103F5000009838B10E494FF080500860BFF34F8F82
:103F6000BFF36F8F257080210848FCF7C0FDBDE8C6
:103F7000384005490122891C0648FFF7ABBF38BD10
:103F800000440040000802401800002010060020F5
:103F900004ED00E0AC0700202DE9F843044690F85A
:103FA0004100984616460D46202802D00220BDE862
:103FB000F88385B17EB100206064212084F841003F
:103FC000FEF788FEA6848146E684A0682027B0F527
:103FD000805F02D003E00120E9E7206910B12E469E
:103FE00000250EE000260CE08021204600F0F3FDC5
:103FF000A8B9C6B116F8010B21684860E08C401ED4
:10400000E084E08C4B464FF00002CDF800800028A1
:10401000EAD14FF04001204600F0DDFD40B184F8C8
:1040200041700320C3E735F8020BC0F30800E3E753
:1040300084F841700020BAE77047FEE701684A69DA
:10404000D24352050FD46FF480624A61002140F8D8
:10405000301F202242738173026942F00402026120
:10406000017301207047002070470000F8B5044636
:10407000C06A1E460D461746082807D0012805D0FD
:1040800010F5803F02D0206B122804D1206801680F
:1040900041F480710160134600224FF00111204667
:1040A000009600F05DF840B120680068C00502D5B8
:1040B0004FF4007020640320F8BD2069B0F5804FF4
:1040C0000ED00620216800EAD51040F0F00008610B
:1040D00033463A460B49204600F08AF878B902E0A8
:1040E00005F0FE0000E0E8B22168086105493346AA
:1040F0003A46891F204600F07BF80028DCD00120DA
:10410000F8BD00000800010070B516460D460446D3
:104110001EE02046FFF792FF08B1012070BD681C29
:1041200016D0FEF7D7FD801BA84200D885B92068BD
:104130004069C04340070BD5002044F8300F2021D0
:104140006173A073216941F0200121612073E4E7CC
:1041500020684069C0434007DBD4002070BD0000E8
:104160002DE9F047984617460D460446C1F3074629
:10417000DDF820902AE000BFB8F1FF3F26D0FEF71F
:10418000A9FDA0EB0901414502D8B8F1000F1DD1EE
:104190002068012E16D0806925EA00000004000C7A
:1041A00012D00020B84211D1002044F8300F202155
:1041B0006173A073216941F0200121612073012006
:1041C000BDE8F0874069E7E70120EBE72068012EB2
:1041D0000AD0806925EA00000004000C06D0002007
:1041E000B842C9D00020EBE74069F3E70120F7E7C8
:1041F0002DE9F047984616460D4604464FF0000953
:104200004FF0200AC1F3074723E020684069C0430C
:10421000400515D42068016841F4007101602168EF
:104220006FF480604861C4F8309084F83DA084F851
:104230003E90216C41F00401216484F83C9021E01F
:10424000701C06D0FEF746FDA0EB0800B04203D874
:1042500016B1012F1FD021E02068012F15D08069F1
:1042600025EA00000004000C18D000BF44F8309F7D
:1042700084F80DA084F80E90216941F0200121619D
:1042800084F80C900120BDE8F087406925EA000021
:104290000004000CEAD12068406901E020688069D0
:1042A00025EA00000004000CAFD1ECE770B516461B
:1042B0000D4604461EE02046FFF7C0FE08B101206F
:1042C00070BD681C16D0FEF705FD801BA84200D803
:1042D00085B920684069C04300060BD5002044F82A
:1042E000300F20216173A073216941F02001216109
:1042F0002073E4E720684069C0430006DBD4002057
:1043000070BD000070B586B014216846FCF7EFFB65
:104310001A480024016841F004010160016801F0BD
:1043200004010591016841F080010160016801F01C
:1043300080010591016841F001010160016801F00F
:1043400001010591016841F00201016000680C4E15
:1043500000F002004FF40055059000222946304637
:10436000FEF7B2FC01200095CDE901046946304614
:104370000394FEF7B1FB06B070BD00003038024078
:1043800000080240FEE7FEE770B50446FCF7C6FAF7
:1043900082B24FF4FA752B4621460548FFF7FCFD23
:1043A0002B46BDE87040A02202490148FFF73ABD04
:1043B000640700200C05002010B5002000F024F850
:1043C000BDE8104000F04AB970B5802813D24029EA
:1043D00011D20B4B012401F007051E79AC40094BAB
:1043E000C90800EBC1100EB132B101E0012A03D0BF
:1043F000195CA143195470BD195C2143FAE7000010
:1044000008000020A800002028B1FF224FF480619E
:104410000248FCF764BB0022F8E70000A800002077
:10442000014A1080518070470800002010B501F04B
:104430007FFB44F62063012278215448FEF714FDE7
:1044400008B1002010BD40F6C210401EFDD1AE22C2
:104450000021782001F072FB20220021782001F059
:104460006DFB10220021782001F068FBB0220021B2
:10447000782001F063FBC8220021782001F05EFB68
:1044800000221146782001F059FB102200217820EB
:1044900001F054FB40220021782001F04FFB8122E3
:1044A0000021782001F04AFBFF220021782001F052
:1044B00045FBA1220021782001F040FBA62200212B
:1044C000782001F03BFBA8220021782001F036FB88
:1044D0003F220021782001F031FBA4220021782026
:1044E00001F02CFBD3220021782001F027FB0022D1
:1044F0001146782001F022FBD5220021782001F01E
:104500001DFBF0220021782001F018FBD9220021A8
:10451000782001F013FB22220021782001F00EFB0D
:10452000DA220021782001F009FB122200217820F4
:1045300001F004FBDB220021782001F0FFFA2022A9
:104540000021782001F0FAFA8D220021782001F074
:10455000F5FA14220021782001F0F0FAAF220021B0
:10456000782001F0EBFA2E220021782001F0E6FA03
:104570000020FFF749FF00F071F805480021018095
:10458000418001214171084610BD00001007002044
:10459000080000202DE9F047814625480D46924647
:1045A00001882A781144802905D28046408869789C
:1045B0000844402802D30020BDE8F08700262AE006
:1045C000A9F1200111FB00606A68002432F8107024
:1045D0001DE000BF07FA04F0000409D5B8F8021086
:1045E000B8F800003144204489B280B252460BE052
:1045F000BAF1000F1AD00022B8F80210B8F8000083
:104600003144204489B280B2FFF7DEFE641C287872
:10461000A042DFD8761C6878B042D1D8B8F8001034
:104620002A7848461144A8F80010C5E70122E3E7BC
:104630000800002070B515460E46044609E02A46DB
:104640003146FFF7A7FF2178884201D0C8B270BD7C
:10465000641C20780028F2D1C0B270BD70B5104D36
:10466000002400BF04F1B000C2B20021782001F0A4
:1046700065FA00221146782001F060FA102200212C
:10468000782001F05BFA05EBC412802340217820EA
:1046900001F064FA641CE4B2082CE3D370BD00009E
:1046A000A8000020ACB0182126A8FCF720FA182199
:1046B00020A8FCF71CFA284E4FF0FF3529460120B0
:1046C00001F068FA2946706900F0D6FE0028F5D19D
:1046D00070783446D0B37F2220496846FCF72EFA22
:1046E00000208DF87F006070606900F09DFE26A9B3
:1046F000684600F05FFC0028E0D09DED2B0ADDED60
:10470000250AB4EE600AF1EE10FA08D19DED2A0AEE
:10471000DDED240AB4EE600AF1EE10FACED029469F
:10472000606900F0A9FE0028C8D1182226A90C480B
:10473000FCF7A3F9606900F077FE182226A920A8EB
:10474000FCF79BF9206901F09DFCB7E7FFE7706972
:1047500000F06AFEB2E7000018000020900600207A
:10476000F407002086B018216846FCF7C0F9154C04
:10477000154D4FF0FF364FF4FA673146606900F08F
:104780007BFE182210496846FCF777F9606900F053
:104790004BFE9DED050AB5EEC00AF1EE10FA0DD004
:1047A0009DED040AB5EEC00AF1EE10FA06D0D5ED83
:1047B000040A95ED050A606800F00AFD384600F02D
:1047C0001FFEDAE718000020F40700200C4C86B02A
:1047D0004FF0FF352946606900F04EFE1822094966
:1047E0006846FCF74AF9606900F01EFEDDED040A38
:1047F0009DED050A01F002FA002001F0B7FCE9E79F
:1048000018000020F407002010B5502080F3118814
:10481000BFF34F8FBFF36F8F02F00EF918B1044949
:104820004FF080500860002080F3118810BD000018
:1048300004ED00E010B592B030216846FCF757F95E
:1048400014210CA8FCF753F918480024016841F022
:1048500080510160006800F0805011901448016898
:1048600021F4404141F4004101600068069400F4E5
:1048700040401190022000900120039010200490ED
:104880006846FEF741FE08B172B6FEE70F20CDE99B
:104890000C040E940F9400210CA81094FEF728FD30
:1048A000002801D072B6FEE712B010BD40380240B9
:1048B000007000400248016841F4700101607047D7
:1048C00088ED00E00148FFF73CB80000600A0020D6
:1048D000F0B50268204B214C9F03214D214E984298
:1048E00007D0B84205D0A04203D0A84201D0B042C0
:1048F00004D122F0700C4A6842EA0C02984210D0AF
:10490000B8420ED0A0420CD0A8420AD0B04208D083
:10491000154CA04205D0154CA04202D0144CA04228
:1049200003D122F44074CA6822434C6922F0800209
:10493000224302608A68C2620A688262984201D198
:1049400009690163012141610169C90703D0016956
:1049500021F001010161F0BD0000014000040040B0
:1049600000080040000C00400040014000440140AD
:104970000048014010B5806B0021C185C184FFF75C
:1049800087F810BD01680C3151E8002F22F49072B5
:1049900041E80023002BF5D10168143151E8002FC4
:1049A00022F0010241E80023002BF5D1016B01291F
:1049B00009D101680C3151E8002F22F0100241E8C2
:1049C0000023002BF5D1202180F842100021016343
:1049D000704708B590F84210222901D0022008BD86
:1049E00082684FF480539A4201D1016921B1816AF2
:1049F0009A421BD04AB10AE00268816A5268C2F347
:104A000008020A80816A891C08E0026972B10268A2
:104A1000526802F07F020A70816A491C8162C18D6E
:104A2000491E0904090CC18503D01BE002685268C5
:104A3000F1E70168CA6822F02002CA600168CA680A
:104A400022F48072CA6001684A6922F001024A6158
:104A5000202180F8421000214163026B012A03D01B
:104A6000FFF746FA002008BD016301680C3151E8E8
:104A7000002F22F0100241E80023002BF5D101683D
:104A80000A68D20602D50A6849680091818DFEF74E
:104A9000FEFFE7E770B5044600680169E26821F4AB
:104AA0004051114301612169A068E26908436169CD
:104AB000114308432168CA6849F20C639A430243D0
:104AC000CA6020684169A26921F4407111434161C3
:104AD00031492068884202D03049884202D1FEF72D
:104AE000D1FC01E0FEF7BEFCE26900231921642538
:104AF0003226B2F5004F626828D0A0FB0101930F67
:104B00009200FBF72FFC0146B0FBF5F06FF01802A6
:104B1000504301EB800006EB0010B0FBF5F000F015
:104B2000F002B1FBF5F002EB0012B1FBF5F06FF013
:104B30001803584301EB800006EB0010B0FBF5F0C2
:104B400000F00F0021681044886070BDA0FB0101D7
:104B500092185B41FBF706FC0146B0FBF5F0020141
:104B6000B1FBF5F06FF01803584301EB800006EB42
:104B7000C000B0FBF5F000F0F80002EB4002B1FB22
:104B8000F5F0584301EB800006EBC000B0FBF5F0F8
:104B900000F00700D6E700000010014000140140BB
:104BA00081628285C28500214164222180F8421001
:104BB000016921B10168CA6842F48072CA60016863
:104BC0004A6942F001024A610068C16841F020016F
:104BD000C160002070472DE9F843984617460D46FE
:104BE0000446089E24E0701C22D0FEF773F8A0EB68
:104BF0000800B0421AD8CEB12068C168490717D55D
:104C0000802D15D0402D13D00168C94309070FD45A
:104C100001680025406800902046FFF7B3FE082099
:104C2000606484F840500120BDE8F8830320FBE76E
:104C30002068006835EA000004D00020B842D2D0D5
:104C40000020F1E70120F9E70148FEF723BF00004B
:104C5000AC070020FEE703B401984100009850EA39
:104C6000C12018BF04204A0D18BF40F0010040F2D7
:104C7000FF72B2EB515F08BF40F00200012808BF8D
:104C8000052002B070470907090E002804DB00F177
:104C9000E02080F80014704700F00F0000F1E020E1
:104CA00080F8141D7047000030B52DED048B81B0E5
:104CB000B0EE408AF0EE608A6A4651EC180B00F0C4
:104CC00033F900989FED329B7E300090002821DC64
:104CD00053EC192B51EC180B02F0B4F81AD0002148
:104CE00040F608004FF00000044651EC180B02F0AB
:104CF00063F808EE100A40F6080004EA00014FF0DD
:104D00000000B5EEC08AF1EE10FA04BF0220FCF7F5
:104D1000BAFF2DE00098FF2830DB002108464FF055
:104D2000000000F4400553EC192B51EC180B02F075
:104D3000FFF98CBF002401240220FCF7A4FF9FEDA3
:104D4000168A4DB1002C0CBF4FF400004FF48000C8
:104D5000A84218BF9FED118A042108464FF00000B9
:104D6000002C01BFB1EE480A01B0BDEC048B30BD90
:104D7000B0EE480A01B0BDEC048B30BD51EC180B0D
:104D800002F01AF801B000EE100ABDEC048B30BD41
:104D900000000000000000000000807FFFFF7F7F18
:104DA00030B540F2FF742DED048BF0EE608A18EE02
:104DB000901A85B0B0EE408A9FED2B9B05468DED95
:104DC000008B34EA115147D053EC192B51EC180BDE
:104DD00002F038F840D02A4651EC180B02F090FA55
:104DE00041EC180B18EE900A8DED008B34EA105050
:104DF0001CD053EC192B51EC180B02F023F82BD1DB
:104E00000220FCF740FF00F043F810EE901A18EE75
:104E1000900A8DED020B8DED008B61F31E00039067
:104E20009DED020B05B0BDEC048B30BD0220FCF7FC
:104E30002AFF00F01DF810EE901A18EE900A8DED82
:104E4000020B8DED008B61F31E0003909DED020BB4
:104E500005B0BDEC048B30BD05B0B0EE480AF0EEF5
:104E6000680ABDEC048B30BD0000000000000000AB
:104E70009FED050B10B553EC102B51EC100B02F00D
:104E800059F841EC100B10BD00000000000000704C
:104E90009FED050B10B553EC102B51EC100B02F0ED
:104EA00049F841EC100B10BD00000000000000109C
:104EB00010B5044691ED000BFFF7F6FE84ED000AF5
:104EC00010BD10B5044690ED000B0846FFF768FFD3
:104ED00084ED000B10BD30380A2801D20120704744
:104EE0000020704730B50021A1B00D460B466C463E
:104EF0000EE00D2A0BD00A2A09D0202A07D0242A36
:104F000001D0625402E015B962540125491C5B1CB2
:104F1000C25C002AEDD162542146FBF7DBFC21B0D4
:104F200030BD00000000000010B582B01446CDE98D
:104F300000010023009A2360194B21F000409842A1
:104F40002ADA024328D0B0F5801FA8BF226810DA01
:104F50009FED150B53EC102B9DED000B51EC100B3E
:104F600001F0E8FFCDE900016FF0350221F00040CB
:104F700022600F4B6FF31E5103EB20501044206052
:104F800041F0FF5040F0005001909DED000B00BF3C
:104F900002B051EC100B10BD9DED000BF8E70000C6
:104FA0000000F07F000000000000000000005043FF
:104FB00002FCFFFF30B50C4689B00546062225A14C
:104FC000FBF7CBFC08BB9FED250A00208DED060A00
:104FD0008DED030A8DED040A8DF81C008DF8140088
:104FE0002A212846FBF76CFC78B1401B14280CDB07
:104FF00005AA04A907A88DE8070003AB06AA18A113
:105000002846FBF729FB052802D0002009B030BD57
:105010009DED060A84ED020A9DED030A84ED010A66
:105020009DF81C0020739DED040A84ED000A9DF894
:10503000141061739DED030A00F0BCF984ED050ABC
:105040009DF814009DED040A00F0B4F984ED040A03
:105050000120DBE724474E474741000000000000E5
:1050600024474E4747412C25662C25662C25632C6A
:1050700025662C256300000038B50178002424291A
:1050800014D1012101E05440491C425C2A2A02D07B
:10509000002AF8D10AE008446A4605A1401CFBF743
:1050A000DBFA0098A04201D1012038BD002038BDB4
:1050B0002530325800000000EFF30580002800D0B2
:1050C0000120704798B0FEF757F8FFF7B3FBFFF7E2
:1050D00019F936483449002401603549C0E9011402
:1050E0004FF48041C0E9034144618461C4610462BA
:1050F000FDF7F6FD08B172B6FEE72C482D49543095
:105100004FF4E1360160C0E901640C25C460C0E9D8
:1051100004458461C461FEF7F5FD08B172B6FEE78F
:10512000224825499C300160C0E90164C460C0E99F
:1051300004458461C461FEF7E5FD08B172B6FEE77F
:10514000FFF774F9194801221C499C30FEF7C2FE92
:10515000159415A8169400F05FF9184C1C22A41E93
:10516000174960616846FBF788FC0021684600F03B
:10517000B5F91349A0601C221C3107A8FBF77DFC80
:10518000002107A800F0AAF90D49E0601C2238317F
:105190000EA8FBF772FC00210EA800F09FF9206119
:1051A00000F035F9FEE70000005400401007002031
:1051B000801A060000100140004400401A00002040
:1051C000287B000801460020842900D0C81C7047B5
:1051D000F0B52DED028B0746414C85B0B0EE608AEC
:1051E0002078F0EE408A08B16078F8B9FDF772FDDA
:1051F0006060207801254FF47A7628B10CE039A060
:10520000FFF7C2F8257007E0FDF764FD6168401AFA
:10521000B042F4D3207880B1FDF75CFD6060607827
:1052200028B10DE031A0FFF7AFF8657008E0FDF799
:1052300051FD6168401AB042F4D3607800284BD029
:105240002DA0FFF7A1F830A0FFF79EF840F25B73A6
:10525000344A35A13D48FBF7FDF83C48FFF794F888
:1052600030481530FBF75AFB024639A13748FBF7A7
:10527000F1F83648FFF788F82A4A3BA1153233483F
:10528000FBF7E8F83148FFF77FF818EE100A01F055
:1052900085FF04460D4618EE900A01F07FFF8DE869
:1052A00033003A4632A13648FBF7D4F83448FBF7CE
:1052B00035FB024633A12548FBF7CCF82348FFF71E
:1052C00063F82F48FFF760F805B034A0BDEC028BFF
:1052D000BDE8F040FFF758B805B0BDEC028BF0BD5B
:1052E0001000002041540D0A0000000041542B43DF
:1052F000475245473F0D0A0041542B434D515454EA
:1053000053544152540D0A0041542B434D515454AF
:10531000414343513D302C22636C69656E743031DA
:10532000220D0A00047B000841542B434D51545474
:10533000434F4E4E4543543D302C2225733A25644D
:10534000222C36302C310D0A00000000A804002069
:1053500041542B434D515454544F5049433D302CEC
:1053600025640D0A0000000025730D0A00000000EE
:1053700025732C20252E36662C20252E366600001F
:10538000AC05002041542B434D5154545041594CCD
:105390004F41443D302C25640D0A000041542B43FD
:1053A0004D5154545055423D302C312C36302C3018
:1053B0000D0A0000DFED100A642280EE201AFDEED7
:1053C000C10A10EE901A4A4300EE902A5328F8EED4
:1053D000E00A30EE600ADFED090A80EE201A00EEE6
:1053E000901AB8EEE00A31EE000A01D0572801D138
:1053F000B1EE400A704700000000C8420000704251
:1054000010B500B9012000F047FD002010BD10B517
:1054100000F076FE002010BD41684FF0010009B198
:1054200000F0BDBF00F0B0BF38B5002405460094C1
:10543000FFF742FE90B16946284601F005F90128C0
:1054400001D0FF2038BD009888B10A494FF0805044
:105450000860BFF34F8FBFF36F8F08E000231A4639
:105460001946284601F040F8012800D0FF242046C4
:1054700038BD000004ED00E038B505004FF0000035
:1054800000900FD00024481C0ED001B10C46FFF74D
:1054900013FEB8B16A460021284601F023F901281D
:1054A00016D104E0802038BD4FF0FF34EFE70098BC
:1054B00080B109494FF080500860BFF34F8FBFF3B0
:1054C0006F8F07E02146284601F05AF9012801D0E4
:1054D000FF2038BD002038BD04ED00E07FB50D464B
:1054E00004464169B0F9080081B1A16971B1FFF7C3
:1054F00069FED4E905128DE80700D4E900102B46B7
:10550000226901F060FA039004B070BDFFF75AFE03
:1055100003A9CDE90001208A2B4682B2D4E900100C
:1055200001F024FA012801D00020EDE70398EBE711
:105530002DE9F041184C0F460546E6682068001D2D
:1055400000F0B8FB38B9206890F82C100120884092
:10555000216981432161681C07D137B12168BDE809
:10556000F0410E48091D00F0E9BB20683544B54202
:105570004560216805D2A06BBDE8F041091D00F02F
:10558000C5BB606B091D00F0C1FBA06A854200D25B
:10559000A562BDE8F081000040000020840B0020DF
:1055A0002DE9F041054600F0D5FB2E4CA068401CCB
:1055B000A06020682C4F10B1606940B32DE02560D9
:1055C000A068012829D1002606EB860007EB8000A1
:1055D00000F08EFB761C072EF6D323488C3000F0AB
:1055E00087FB2148A03000F083FB1F48B43000F057
:1055F0007FFB1D48C83000F07BFB1B48DC3000F00F
:1056000077FB19488C3060631430A06305E0206894
:10561000E96AC06A884200D82560606A401C6062FE
:10562000E96A0120226988401043206101EB810072
:1056300007EB8000291D00F081FB00F0ABFB6069E7
:1056400000280CD02068E96AC06A884207D207495E
:105650004FF080500860BFF34F8FBFF36F8FBDE8EE
:10566000F081000040000020A80A002004ED00E0C6
:1056700030B4026C0B46002A0BD0C1681144C160E3
:105680008468A14201D30168C16030BC1846FBF7B1
:10569000AFB930BC70472DE9F041856B1746044621
:1056A0000026026C82B1C7B1E068FBF7A1F9E1689E
:1056B000206C091AE1602268914202D2A168081A9E
:1056C000E060022F16D017E02068A8B9A06801F0AA
:1056D00019FA06460020A0600EE06068FBF788F922
:1056E000216C606808446060A168884204D3206827
:1056F000606001E005B16D1E6D1CA5633046BDE81C
:10570000F08110B5044690F8510058B101280CD032
:1057100002280FD0502080F31188BFF34F8FBFF3C2
:105720006F8FFEE7206B00F049FB2046BDE810407C
:1057300000F044BB10BD000010484FF47051420708
:1057400006D0C01D0D4920F00700411AC1F5705167
:105750000B4A00230144C2E900030839183A21F03A
:10576000070111604B600B600B1AC0E900139360D6
:105770004FF000405360506170470000980B0020CC
:1057800094000020144E154CA6F1C8074FF0805825
:10579000DFF84C9012E000BF00F0DCFAF068C5685A
:1057A000281D00F087FAA068401EA0606068401EB7
:1057B000606000F0EFFA2846FFF7A3FF606800285A
:1057C000EAD138680128F9D9C9F80080BFF34F8FB2
:1057D000BFF36F8FF2E70000700B00204000002045
:1057E00004ED00E0002807D00021816001600B4635
:1057F0000A46C16000F078BE70470346009829B1A0
:105800000260C0E90F31012100F02ABE0060F8E714
:105810002DE9F05F8846DDE90B941546834691003B
:105820009A460A9EA522206BFBF759F96FF00301F7
:10583000206B01EB8501084420F00707780707D0AB
:10584000502080F31188BFF34F8FBFF36F8FFEE7B7
:105850000025B8F1000F0FD05FF00000221818F8F3
:10586000001082F8341018F8001011B1401C1028F4
:10587000F4D384F8435001E084F83450072E00D369
:105880000626E662C4E91165201D00F03CFA04F129
:10589000180000F038FA2461C6F107006462A061C4
:1058A000E56484F8505052465946384600F02AF9CB
:1058B0002060B9F1000F01D0C9F80040BDE8F09FA9
:1058C00030B5114900E011460A688242FBD34B68AB
:1058D0005C18844203D14068184448600846436815
:1058E0001C18944209D1084C183C2468A24209D0E3
:1058F00052681A4442600A6812680260814200D00D
:10590000086030BD0460F9E79400002010B504463B
:1059100000F020FAA06B28B15FF0000400F03AFA22
:10592000204610BD0124F9E70648416B096829B1FA
:10593000416BC968C9684968816270474FF0FF319F
:10594000FAE700004000002008484068401C4FF083
:10595000500080F3118804D0BFF34F8FBFF36F8FD7
:10596000FEE7BFF34F8FBFF36F8FFEE79C00002071
:10597000002150B10A4B42699A420FD1806AA3F1CB
:10598000280290420AD040B108E0502080F31188EC
:10599000BFF34F8FBFF36F8FFEE7012108467047BB
:1059A000840B00202DE9F041044600F0D3F994F96E
:1059B000455004F1240609E0606A48B1304601F020
:1059C00033F908B100F096FA6D1E6DB2002DF3DCCC
:1059D0004FF0FF3684F8456000F0DCF900F0BAF9CA
:1059E00094F9445004F1100709E0206948B13846A1
:1059F00001F01AF908B100F07DFA6D1E6DB2002DAC
:105A0000F3DC84F84460BDE8F04100F0C3B9000065
:105A10002DE9F0410546002700F006FC324E3068C3
:105A200008B9FFF789FE706905424ED1C5B3083544
:105A300068070ED005F00700C0F1080005446807AC
:105A400007D0502080F31188BFF34F8FBFF36F8FC3
:105A5000FEE72DB37068854237D8234818300146D9
:105A60000C6801E020460C466168A94202D2216818
:105A70000029F7D131688C4227D00768216801607E
:105A800060680837411B10290FD96019420708D0F8
:105A9000502080F31188BFF34F8FBFF36F8FFEE765
:105AA00013E041606560FFF70BFF61687068401AA2
:105AB0007060B268904200D2B0607069014300200B
:105AC000C4E90001F068401CF06001F0E7F87807D5
:105AD00007D0502080F31188BFF34F8FBFF36F8F33
